:02000002B0004C
:1040000000400B0014840B0000000600170005029E
:0840100004011F0C0000000078
:04401800E87F0B0032
:1040200009480A49884208B505D0094A824202D0A7
:10403000121A03F065FF0748074A0021121A03F01D
:104040006DFF014808BD00BF2CE603207C830B00F8
:104050009CE603209CE60320F0E7032070B5074EA2
:10406000074C01F05BF9A41BA4080025A54200D170
:1040700070BD56F8043B98470135F7E74C830B00B9
:1040800070830B0000F024B808B500F069F8BDE8B3
:10409000084001F0FBB800F00FBE00F00DBE00F0CC
:1040A00013BE0078B0FA80F0400970470123037016
:1040B0007047000013B5054B1B788DF800303C238A
:1040C000044601F0AFFA204602B010BDA5E6032079
:1040D00010B5124C01F0E8FC4FF4165101F0D8FC79
:1040E0000F4A1049204601F0A6F90F4A0F49204611
:1040F00001F0A1F901F0AAFD4FF4165101F0A2FD63
:1041000003211C2001F068FF01F0B6FF01F034FE2E
:10411000BDE81040064800F066BA00BF0B540B0023
:10412000FC7F0B00F9430B0009800B0099430B0047
:10413000E8E6032038B5046805467CB16368013BB6
:1041400063605BB9236820469B689847A368013B7E
:10415000A3601BB923682046DB689847284638BD12
:104160002DE9FF4701F05CFF002000F0D9FB044679
:1041700001F056FF012000F0D3FB012865D16C4906
:104180006C4800F044FFDFF8AC816B4FDFF804921D
:104190006A4D01F089FCD8F8001000F0EFFF3B6891
:1041A000C9F800301C2001F028FFD9F800A006460D
:1041B000B0FA80F040093860BAF1000F4DD1002EFE
:1041C0005BD1DFF8B8A19AF80030002B55D001F090
:1041D0006BFC5B4900F0E5FF5A4B5B4A1B785B497F
:1041E0008DF8003002A83C2301F01CFA03A8FFF769
:1041F000A1FF2E708AF80060D9F80090544D554EFA
:10420000B9F1000F5CD13B68012B66D1012C64D160
:1042100001F01CFD504900F0B1FF01F017FDD8F886
:10422000001000F0ABFF85F8009034704B4F3B78E6
:10423000002B55D0012C53D101F008FD434900F06B
:104240009DFF002333703B704AE0022801D14449AE
:1042500096E7032897D1434992E7BAF1010F0CD1B1
:104260005EB101F021FC404900F09BFF85F800A001
:1042700000F046FB3D4B1860BEE72B78002BBBD00F
:1042800000F03EFB394B1B68C01A394B9842B3D93A
:1042900001F00AFC374900F084FF2A4B364A1B78AC
:1042A0002A498DF8003002A83C2301F0BBF903A88D
:1042B000FFF740FF00232B70304B01221A709BE761
:1042C000B9F1010F09D13B683BB9012C05D133701D
:1042D0002C7000F015FB2A4B18603378002BA5D109
:1042E0002B780BB300F00CFB254B1B68C01A254B39
:1042F000984219D9012C17D101F0D6FB224900F0C0
:1043000050FF01F0A3FC214900F038FF01F09EFCB2
:10431000114900F033FF01F099FC1D4900F02EFF18
:1043200000232B700D4B1C7004B0BDE8F08700BF5C
:10433000BCE6032004E70320E0E603202CE603208C
:104340001C800B00A6E603202D800B002F800B00A5
:104350002DE60320DCE603205C800B00DDE6032075
:10436000CCE60320ACE6032031800B00A0E603205E
:104370001FBF020041800B008E800B00A4E60320CB
:10438000A8E603209FCD87005E800B008A800B008B
:104390008C800B00E4E6032000B5134989B000F0DF
:1043A0007CFEE8B1114800F033FA104800F075FACD
:1043B000062104A800F057FE0D4B049A1B780D4906
:1043C0008DF8003002A83C2301F02CF903A8FFF778
:1043D000B1FE04A800F0BCFD012009B05DF804FBAB
:1043E0004FF0FF30F9E700BF90800B00E8E60320B4
:1043F000A6E6032010800B0030B5404985B0044686
:1044000000F04BFE0546D0B101F04EFB01243C49C3
:1044100000F0B4FEADF8064001F002FE02220DF1FC
:104420000601002000F084FA344A364902A8FFF75A
:1044300041FE03A8FFF77EFE012005B030BD3249E2
:10444000204600F02AFE80B101F02EFB2F4900F03B
:1044500095FEADF8065001F0E3FD02220DF10601D4
:10446000284600F065FA284ADFE72949204600F08F
:1044700014FE90B101F018FB0124264900F07EFEE5
:10448000ADF8064001F0CCFD02220DF106012046F8
:1044900000F04EFA204A2149C8E72149204600F0A1
:1044A000FCFD88B101F000FB02241E4900F066FE0D
:1044B000ADF8064001F0B4FD22460DF106010120E1
:1044C00000F036FA184AE6E71849204600F0E5FD04
:1044D00088B101F0E9FA164900F050FE0323ADF867
:1044E000063001F09DFD02220DF10601012000F0D1
:1044F0001FFA104ACFE74FF0FF309EE7A4800B0071
:1045000097800B00FC7F0B00B6800B00A9800B008E
:10451000C6800B00BC800B00CA800B00CE800B0055
:10452000E2800B00D8800B00E9800B00FA800B00C2
:10453000F0800B00FF800B0038B51B4B1B4D1C4C53
:10454000002119701B4B0120187000F009FB1A495B
:10455000284600F048FD2846184D194A214601F02A
:10456000B3FD1849284600F03EFD2846164D144A72
:10457000214601F0A9FD1549284600F034FD2846E2
:10458000134D0F4A214601F09FFD1249284600F0C5
:104590002AFD214628460A4A01F096FDBDE838402A
:1045A0000D4800F01FB800BFA5E60320ACE60320CD
:1045B000514F0B00A6E6032004810B00CCE603203C
:1045C0009CE6032008810B00BCE603200C810B0055
:1045D00004E7032040800B00E8E603200368C9B22B
:1045E0009B681847704770B5044601F045FD772178
:1045F00001F0F8FB01F040FD1E21FFF7EFFF01F095
:104600003BFD01F0F6FB0A2000F006FE023CA0256F
:1046100001F032FD772101F0E5FB01F02DFD294687
:10462000FFF7DCFF01F028FD01F0E3FB01F024FDC2
:104630000222772101F0CFFB01F01EFD03685B69C8
:104640009847064601F018FD03685B6998470235F4
:1046500040EA0620B02D24F8020FD9D170BD000029
:104660002DE9F04F2DED028B4388DFED637A05696C
:1046700007EE103AB8EE477AB8EE008A27EE087ACD
:104680002D0AC7EE277A87B00446856117EE900A97
:1046900002F010FF80462846894602F0E9FE9FEDB1
:1046A000521B41EC100B01F01BFDA38807EE103AE2
:1046B000B8EE477AF1EE007A27EE277ADFED4F7AEF
:1046C000C7EE277A8DED020B17EE900A02F0F2FE8C
:1046D0008246A0698B4602F0CBFE9FED451B41EC64
:1046E000100B01F0FDFCA56928468DED000B02F0D2
:1046F000BFFE02460B46CDE90423E3889FED407AD6
:1047000007EE903AF8EE677A67EE887AC7EE877A16
:1047100017EE900A02F0CEFEDDE9042306460F46AE
:104720001046194602F01EFF02460B463046394637
:1047300002F018FFDDE9022306460F4640464946CF
:1047400002F010FFDDE900238046894650465946B5
:1047500002F008FF02460B464046494602F04CFD77
:1047600002460B463046394602F046FD2389DFED0E
:10477000256A07EE903AF8EE677A064687EEA67A43
:104780000F4607EE905AF8EE677A67EE277A17EE33
:10479000900A02F08FFE02460B463046394602F080
:1047A0002BFD0646608907EE900AF8EE677A0F4601
:1047B00017EE900A02F07EFE134B002202F0D2FEAA
:1047C000124B002202F0F8FF02460B4630463946F3
:1047D00002F012FD03F096F9606107B0BDEC028BA8
:1047E000BDE8F08FAFF30080000000000000104033
:1047F000000000000000084027D75862CA1B0E5A6C
:10480000B743BA51002474490000F8BF0000594072
:1048100038B5044601F030FC772101F0E3FA01F0ED
:104820002BFC4821FFF7DAFE01F026FC01F0E1FA4B
:104830000A2000F0F1FC01F01FFC772101F0D2FA10
:1048400001F01AFC0021FFF7C9FE01F015FC01F090
:10485000D0FA01F011FC0322772101F0BCFA002309
:10486000236101F009FC03685B69984720610546F4
:1048700001F002FC03685B69984740EA0525256161
:1048800001F0FAFB03685B69984740EA0520206164
:104890002046BDE83840FFF7E3BE90ED050A7047BB
:1048A00008B5024B1B689B68019308BD68020300B2
:1048B00008B5024B1B68DB68019308BD6802030062
:1048C00008B5024B1B689B68019308BD2C020300CE
:1048D00008B5024B1B68DB68019308BD2C0203007E
:1048E00008B5024B1B685B69019308BD2C020300ED
:1048F00008B5024B1B685B68019308BD18020300F2
:1049000008B5024B1B685B69019308BD18020300E0
:1049100008B5024B1B689B6A019308BD180203008F
:1049200008B5024B1B68DB6A019308BD180203003F
:1049300008B5024B1B689B6C019308BD180203006D
:1049400008B5024B1B685B6C019308BD480203006D
:1049500008B5024B1B689B6C019308BD480203001D
:1049600008B5024B1B685B69019308BD6402030034
:1049700008B5024B1B681B68019308BD3C0203008D
:1049800008B5024B1B68DB68019308BD3C020300BD
:1049900008B5024B1B681B69019308BD3C0203006C
:1049A00008B5024B1B685B69019308BD3C0203001C
:1049B00008B5024B1B689B69019308BD3C020300CC
:1049C00008B5024B1B68DB69019308BD3C0203007C
:1049D00008B5024B1B681B6A019308BD3C0203002B
:1049E00008B5024B1B689B6A019308BD3C0203009B
:1049F00008B5024B1B68DB6A019308BD3C0203004B
:104A000008B5024B1B68DB68019308BD2802030050
:104A100008B5024B1B689B69019308BD280203007F
:104A200008B5024B1B68DB69019308BD280203002F
:104A300008B5024B1B681B6A019308BD28020300DE
:104A400008B5024B1B685B6A019308BD280203008E
:104A500008B5024B1B689B6A019308BD280203003E
:104A600008B5024B1B68DB6A019308BD28020300EE
:104A700008B5024B1B681B6B019308BD280203009D
:104A800008B5024B1B685B6B019308BD280203004D
:104A900008B5024B1B681B6C019308BD280203007C
:104AA00008B5024B1B681B6D019308BD280203006B
:104AB00008B5024B1B68DB69019308BD3002030097
:104AC00008B5024B1B681B6A019308BD3002030046
:104AD00008B5024B1B681B68019308BD4C0203001C
:104AE00008B5024B1B685B68019308BD4C020300CC
:104AF00008B5024B1B681B69019308BD4C020300FB
:104B000008B5024B1B685B69019308BD4C020300AA
:104B100008B5024B1B689B69019308BD4C0203005A
:104B200008B5024B1B68DB69019308BD4C0203000A
:104B300008B5024B1B681B6A019308BD4C020300B9
:104B400008B5024B1B685B68019308BD2002030097
:104B500008B5024B1B685B69019308BD2002030086
:104B600008B5024B1B68DB6A019308BD20020300F5
:104B700008B5024B1B68DB6C019308BD20020300E3
:104B800008B5024B1B685B6D019308BD2002030052
:104B900008B5034B1B68D3F88830019308BD0000AB
:104BA0002002030008B5034B1B68D3F8943001932F
:104BB00008BD00002002030008B5024B1B685B68BB
:104BC000019308BD4002030008B5024B1B689B68B7
:104BD000019308BD4002030008B5024B1B68DB6867
:104BE000019308BD4002030008B5024B1B681B6916
:104BF000019308BD4002030008B5024B1B685B69C6
:104C0000019308BD4002030008B5024B1B689B6975
:104C1000019308BD4002030008B5024B1B68DB6925
:104C2000019308BD4002030008B5024B1B681B6AD4
:104C3000019308BD4002030008B5024B1B681B6BC3
:104C4000019308BD4002030008B5024B1B685B6B73
:104C5000019308BD4002030008B5024B1B681B6CA2
:104C6000019308BD4002030008B5024B1B685B6C52
:104C7000019308BD4002030008B5024B1B685B6846
:104C8000019308BD4402030008B5024B1B685B6931
:104C9000019308BD4402030008B5024B1B681B6A60
:104CA000019308BD4402030008B5024B1B68DB6B8F
:104CB000019308BD4402030008B5024B1B681B6842
:104CC000019308BD1C02030008B5024B1B685B681A
:104CD000019308BD1C02030008B5024B1B689B68CA
:104CE000019308BD1C02030008B5024B1B68DB6A78
:104CF000019308BD1C02030008B5024B1B681B6B27
:104D0000019308BD1C02030008B5024B1B68DB6B56
:104D1000019308BD1C02030008B5024B1B681B6C05
:104D2000019308BD1C02030008B5024B1B685B6CB5
:104D3000019308BD1C020300002240681146FFF7E2
:104D400073BF002240681146FFF77EBF4068002213
:104D5000FFF772BF4068002281F00101FFF75CBFDE
:104D6000002340681A461946FFF74EBF00234068EB
:104D70001A461946FFF740BF002240681146FFF768
:104D800033BF002240681146FFF71EBF4068002273
:104D90000221FFF721BF002340681A46FFF70CBF2E
:104DA000024B03225A60024A1A60704714E703203C
:104DB00018810B0010B5044608462170FFF778FEF5
:104DC00000236360204610BD10B50446006818B18A
:104DD000FFF77AFF0023236010BD10B50446FFF7EC
:104DE000F3FF204610BD000010B5094B094C02220C
:104DF0001A600020084BA360C4E90000FFF7A0FE82
:104E00002046064A0649BDE8104001F05DB900BFE2
:104E100028E703201CE703200000FFFF9CE6032097
:104E2000DB4D0B0010B5044603F0D5F8013823180C
:104E30002046834206D90278197800F8011B03F84E
:104E40000129F6E710BD70B50C46911E22291DD828
:104E5000254630B9234430229D4210D205F8012B5B
:104E6000FAE7B0FBF2F602FB1600C1B2092894BFC4
:104E700030315731C9B205F8011B3046E9E700234C
:104E800020462B70FFF7CEFF204670BD0020FCE7C8
:104E90002DE9F14F57EC106B80460C4610EE100ACE
:104EA00000220023394602F0CFFD28B107F100436C
:104EB0001F462D2304F8013B00234FF001090A226D
:104EC000D9B2884503D902FB09F90133F8E748460E
:104ED00002F0DEFA32463B4602F044FB06460F463D
:104EE00002F078FE8A4605468B4602F005FB024634
:104EF0000B463046394602F07DF9144B002202F091
:104F0000B7FD10B101354AF1000B4A462846D317C8
:104F1000594602F047FE0123154621460A22FFF7B3
:104F200092FFB8F1000F0ED0204603F054F82E2364
:104F3000211823540A2243460131284601B0BDE816
:104F4000F04FFFF780BF01B0BDE8F08F0000E03FF9
:104F500010B504460068FFF7B7FE204610BD10B537
:104F60000446006808B1FFF7AFFE0023C4E901332F
:104F7000236010BD38B504460D4600680131FFF7C7
:104F8000ABFE10B1C4E90005012038BD10B50368BF
:104F9000044623B143688B4201D3012010BD204653
:104FA000FFF7E8FF0028F9D0A368002BF5D12268AD
:104FB0001370F2E737B50D46114601920446FFF72C
:104FC000E5FF019A28B92046FFF7C9FF204603B044
:104FD00030BDA2602946206802F092FF2268A368D3
:104FE0000021D154F2E7002313B5C0E90033044691
:104FF0008360037341B10846019102F0ECFF01990F
:1050000002462046FFF7D6FF204602B010BD884278
:1050100010B5044605D00B682BB18A681946FFF716
:10502000C9FF204610BDFFF79AFFFAE710B500232D
:105030000446C0E9003383600373FFF7E8FF2046AE
:1050400010BD13B5044659B10846019102F0C3FFE3
:10505000019902462046FFF7ADFF204602B010BD81
:10506000FFF77DFFF9E730B5044600238BB0C4E9B4
:105070000033A360237310EE100ACDB202F01AFAC7
:1050800041EC100B01A92846FFF702FF01A92046B9
:10509000FFF7D7FF20460BB030BD08B582683AB99C
:1050A00021B10878B0FA80F0400900E0012008BD85
:1050B000006809B90078F5E702F066FFF2E710B57D
:1050C0000446006808B1FFF743FC204610BD10B548
:1050D0008368044613B1032201469847204610BD59
:1050E00013B50B460246D0E900016C4684E8030084
:1050F00093E8030082E8030094E8030083E80300D8
:1051000002B010BD10B5064C002320462360FFF707
:1051100017FC2046034A0449BDE8104000F0D4BF04
:105120002CE703209CE60320BF500B00F8B5064691
:105130000D468F180024BD420CD0336815F8011BB2
:105140009B6830469847031E01DB1C44F3E7002CA4
:1051500008BF1C462046F8BD13B50446084659B1A1
:10516000019102F038FF23680199DB68024620466E
:1051700002B0BDE81040184702B010BD08B5FFF7F7
:10518000EBFF08BD03689B68184738B50D2105463D
:10519000FFF7F8FF0A2104462846FFF7F3FF2044F3
:1051A00038BD38B50546FFF7D7FF04462846FFF758
:1051B000ECFF204438BD30B58BB00023012A8DF8B8
:1051C000243098BF0A2209AC0D46B1FBF2F101FB75
:1051D000125303F0FF03092B94BF30333733DBB294
:1051E000AA4204F8013DEFD92146FFF7B5FF0BB005
:1051F00030BD0000014B024A1A60704730E70320BF
:105200004C810B00024B1A68024B1A60704700BFBA
:1052100030E6032034E703200021FFF799BC10B5E6
:105220000446FFF754FF204610BD00000348044A1F
:1052300004490023836000F047BF00BF38E7032024
:105240009CE603201F520B00014B1860704700BF03
:1052500038E6032008B50B4B43B100F025FC03688A
:105260001B699847002801DDAFF30080064B43B16E
:1052700000F0ECFC03681B699847002801DDAFF3E0
:10528000008008BD000000000000000008B5FFF726
:10529000E1FFFFF735FB014B186008BDCCE70320A9
:1052A0000548064A064908B5121A02F029FE054BC0
:1052B000054A1A6008BD00BF00F4032004F403206F
:1052C00078830B0000F403201E1C279A07B50023E7
:1052D00000931A466FF07701FFF764FC03B05DF8A6
:1052E00004FB000007B543880A2B08D0502B0BD1D4
:1052F000094B1B684BB103B05DF804EB1847FFF78F
:10530000E5FF03B05DF804FB002300931A466FF03D
:105310007701FFF747FCF4E74CE7032010B512488C
:105320000021FFF701FD114B1A68114B9A42114BF6
:105330000CBF012200221A7001D0FFF7B1FFFFF766
:10534000D7FA044602F0F2FD0B4B13B12046AFF33F
:10535000008000210848FFF7A7FCBDE8104007487F
:105360000021FFF715BC00BF49520B0000F40320D9
:105370001E1C279A48E7032000000000E5520B009E
:1053800070470020704710B51021044600F0A1FEC0
:10539000204610BD08B5FFF7F6FF08BD30B5002266
:1053A0004FF69C74026084808D888C800C688580A8
:1053B00004600A6030BD10B504460068FFF784FC45
:1053C000204610BD38B5C468F4B12378022B03D150
:1053D00004F10C00FFF7EFFF656835B12846FFF7D1
:1053E00076FE1021284600F074FEA56835B12846E7
:1053F000FFF76DFE1021284600F06BFE20461421B9
:10540000BDE8384000F065BE38BD10B588B0044630
:105410006846FFF7E8FD694604A8FFF707FE04A801
:10542000A047044604A8FFF793FD6846FFF790FDE8
:10543000204608B010BD1FB50023CDE9020101923E
:1054400010241A4669461846ADF80230ADF80040FF
:10545000FFF712FC04B010BD0B6803604B6843609B
:1054600013B15A6801325A60704737B5044668462E
:105470000D46FFF7F1FF009B019A23606260002355
:1054800001A801930093FEF755FE35B1281DFEF7E4
:1054900051FE0821284600F01CFE204603B030BD16
:1054A000826810B50AB900F018FEBDE81040C36864
:1054B000184708B5006800F11001FFF7F1FF08BDBB
:1054C000826810B50AB900F008FEBDE81040C36854
:1054D000184708B5006800F11001FFF7F1FF08BD9B
:1054E00038B500230446036010200D46FEF7D3FDB7
:1054F00028B10123C0E90133024B0360C56020607D
:10550000204638BD74810B0038B5002383608B685A
:1055100004460D462BB102229847EB68E360AB6866
:10552000A360204638BD0000F0B589B00468684625
:10553000FFF734FF4FF00203D4E84F2F002A03D1C6
:10554000C4E8413F0029F7D125D104F10C05694693
:105550002846FFF723FFBFF35B8F01236370002012
:1055600004F10803BFF35B8F53E8006F43E80002C8
:10557000002AF9D1BFF35B8F6EB1FFF7F9FA78B16A
:1055800029463046FFF78CFF3046FFF7A0FD10217B
:10559000304600F09EFD6846FFF70DFF09B0F0BDF4
:1055A000314602A8FFF7B0FFE068B4F9105008B127
:1055B00002F0F4FC06901020ADF81C50FEF76BFDD5
:1055C0000546E8B1002787601820FEF764FD044611
:1055D00088B10146876002A8FFF782FD049BA2689C
:1055E000A360059B049206A9E268E36004F1100041
:1055F0000592FFF7D3FE084BEB60084B2C60AB60C5
:1056000006A8FFF7D8FE02A8FFF761FD0022294691
:105610000348FFF7B5FAB7E7B3540B0035570B0053
:10562000D55C0B002DE9F04F8BB005469DF850A0DE
:105630000F4690469946FFF727FB07AE834638BBD7
:105640004FF62E73059005A93046ADF81830FFF7D8
:10565000A5FE1420FEF71FFD044648B10223037087
:105660000123C0E901BB437031460C30FFF796FEC1
:105670002846214640F8044BFFF732FF3046FFF73B
:105680009AFE05A8FFF797FE28460BB0BDE8F08FFD
:105690000C2300241420CDE908440793FEF7FBFCFB
:1056A000014618B1C0E901440470447004A8039194
:1056B000FFF716FF1E4B08930820FEF7ECFC04468C
:1056C00010B103A9FFF7C8FE00965FFA8AF34A46B5
:1056D000414638460994FFF7DFFAB8B9039B5B7877
:1056E00003F0FF0293B94FF69C7305A903A8059236
:1056F000ADF81830FFF718FF05A8FFF75CFE05A806
:105700000999FFF7B2FE06A8FEF714FD03A905A844
:10571000FFF7A2FE059B069A2B606A60002306A88D
:1057200006930593FEF706FD04A8FEF703FDABE71D
:10573000B1570B00012AF8B5054603D10B68036089
:105740000020F8BD022A10D0032AF9D10468002CE9
:10575000F6D004F11000FFF72EFE2046FFF7B7FC4D
:105760001821204600F0B5FCEAE718200E68FEF785
:1057700092FC044650B13146FFF7C6FE3069B6F9D7
:10578000147008B102F00AFC2061A7822C60D7E7F0
:1057900038B5002383608B6804460D462BB1022286
:1057A0009847EB68E360AB68A360204638BD000013
:1057B000F0B589B004460D4601A81146FFF755FE25
:1057C000A4B124B21DB1284602F0E8FB054601A8A9
:1057D00003A90395ADF81040FFF7A6FE03A8FFF755
:1057E000EAFD02A8FEF7A6FC09B0F0BD019D012369
:1057F000D5E84F2F002A03D1C5E8413F0029F7D152
:10580000EFD12B73BFF35B8F6B702B1DBFF35B8FDF
:1058100053E8006F43E80042002AF9D1BFF35B8FE1
:10582000002EDED02046FFF7A3F9074660B105F150
:105830000C013046FFF744FE3046FFF748FC1021CC
:10584000304600F046FCCCE7314603A8FFF7A0FF46
:105850002B7B8DF81C301020FEF71DFC0546D0B1C7
:1058600087601420FEF717FC044678B18760014674
:1058700003A8FFF735FC059BA268A360069B059271
:10588000E268E3609DF81C3006922374064BEB60DF
:10589000064B2C60AB6003A8FFF719FC00222946D9
:1058A0000348FFF76DF9C7E7D3540B00B5580B0059
:1058B000D55C0B00012A70B5044603D10B68036068
:1058C000002070BD022A0CD0032AF9D10468002CF4
:1058D000F6D02046FFF7FBFB1421204600F0F9FB31
:1058E000EEE714200E68FEF7D6FB054620B13146E0
:1058F000FFF74EFF337C2B742560E1E7704710B54E
:105900001821044600F0E5FB204610BDF0B5037DEC
:10591000062B8DB00E4600F104074FF0000412D0A4
:1059200000F1080515F8011D0A223046FFF743FC77
:10593000AF42044419D0002CF4D02E213046FFF79A
:1059400021FC0444EEE72F236A4639460A208DF8ED
:105950000040FFF705F8684602F03DFB3368024659
:10596000DB68694630469847044620460DB0F0BDD6
:1059700010B5054B0446112240F8043B002102F00B
:10598000CDFA204610BD00BF90810B000346074AA8
:1059900010B543F8042B01F1100251F8044B43F801
:1059A000044B9142F9D10A781A7010BD90810B0016
:1059B00010B59DF8084044EA032343EA024242EA54
:1059C000016104234160037510BD000007B5064B5B
:1059D0000360CB7800938B784A780978FFF7E8FF6B
:1059E00003B05DF804FB00BF90810B004174704769
:1059F000704708B50021007CFFF78AF840EAE070A4
:105A000008BD08B50121007CFFF782F840EAE0708C
:105A100008BD08B5007CFFF773F820EAE07008BD08
:105A200008B5007CFFF764F820EAE07008BD13B504
:105A30000446007C0191FFF763F80028019901DC1E
:105A4000607C20B1207CFFF76BF820EAE07002B0A8
:105A500010BD007CFFF76CB810B51421044600F0AF
:105A600038FB204610BD000010B54FF47A73044691
:105A700008460021C4E90113044B2360012320746C
:105A800063741146FFF724F8204610BDA4810B0073
:105A9000007C0022FFF724B810B514220446002130
:105AA00002F03CFA204610BD10B5104C88B003A897
:105AB000FFF7F2FF2178BFF35B8F11F0010111D1E5
:105AC00020460191FEF7EDFA019958B103AA084862
:105AD000FFF7CAFF2046FEF7E9FA064A06490448DE
:105AE00000F0F2FA024808B010BD00BF50E70320F2
:105AF00054E703209CE60320F1590B000022406884
:105B00001146FFF771B8002240681146FFF78CB8C4
:105B1000002240681146FFF797B840680022FFF75F
:105B20008BB84068002281F00101FFF775B80023AF
:105B300040681A461946FFF767B8002340681A46BE
:105B40001946FFF759B8002240681146FFF73CB8E4
:105B5000406800220221FFF73FB8002340681A4640
:105B6000FFF72AB8084B10B5282422461846002112
:105B700002F0D4F9054B04804FF0FF32426004225A
:105B80005A60034A1A6010BD70E7032068E70320DB
:105B9000D4810B0070474174704708B5007CFEF754
:105BA0001FFF20EAE07008BD08B5007CFEF7F0FE9C
:105BB00020EAE07008BD08B5007CFEF7F9FE40EA77
:105BC000E07008BD08B5007CFEF7EAFE40EAE07030
:105BD00008BD007CFEF7F4BE37B5457C04462DB108
:105BE000207C03B0BDE83040FEF7CABE007C0191C6
:105BF000FEF7F6FE00280199F2DC284603B030BD1E
:105C000010B51421044600F064FA204610BD0000CF
:105C100010B54FF0000C0446084611464FF47A7256
:105C2000C4E901C2044A22600122207462741A4647
:105C3000FEF79EFE204610BD10820B00007C002364
:105C4000FEF7D6BE0022FFF7F9BF0000F7B51B4DE7
:105C50002E684EB98420FEF71EFA044618B184223D
:105C6000314602F05BF92C60154E37684FB984203D
:105C7000FEF711FA044618B18422394602F04EF9B3
:105C80003460104C2178BFF35B8F11F0010112D109
:105C900020460191FEF705FA019960B12A68336840
:105CA0000948FFF7B5FF2046FEF700FA074A084902
:105CB000054800F009FA044803B0F0BD9CE7032052
:105CC000A0E7032098E70320A4E703209CE6032035
:105CD000955B0B0010B5836804460BB900F0FDF925
:105CE000C3689847A3681BB1032221462046984702
:105CF00020461021BDE8104000F0EBB97047F8B520
:105D0000064615460C468F18BC4206D0336814F878
:105D1000011B9B6830469847F6E72846F8BD007C93
:105D20000022FEF785BE007C0021FEF789BE007CC4
:105D30000021FEF78DBE007C0021FEF791BE007CA5
:105D40000021FEF795BE10B51421044600F0C1F9FC
:105D5000204610BD10B54FF47A7304460846002162
:105D6000C4E90113034B236020741146FEF790FE33
:105D7000204610BD40820B000023007C1A461946C5
:105D8000FEF73EBE7FB500221423CDE90122ADF817
:105D900004300B788DF808304B680393CB6804937C
:105DA000007C0B7A059301A9FEF77AFE07B05DF837
:105DB00004FB1FB5003B8DF800104FF06401039108
:105DC00018BF0123694601928DF80830FFF7DAFF0A
:105DD00005B05DF804FB0123FFF7EBBF007C002258
:105DE000FEF716BEC9B2FFF7F9BF007C0022FEF72E
:105DF00017BE0121FFF7F9BF002340681A46FEF7DE
:105E0000DBBE406800220221FEF7E6BE00224068A9
:105E10001146FEF7D9BE002240681146FEF7E4BEE7
:105E2000002340681A461946FEF7E6BE0023406884
:105E30001A461946FEF7E8BE40680021FEF70CBF7F
:105E400040680021FEF710BF4068002281F0010188
:105E5000FEF7E2BE40680022FEF7EEBE0022406878
:105E60001146FEF7F1BE002240681146FEF7DCBE87
:105E70002DE9F04395B014460D460746FFF778FD2F
:105E800000211C220DA8009102F048F840230C9339
:105E900020466B460CAA0021FEF70AFD04460028A6
:105EA0004BD1024601216868FEF79EFE0221804622
:105EB00022466868FEF798FE009E81462146002E25
:105EC0003BD0002939D17368022B03D00A2B11D0A3
:105ED000F669F4E7B8F1000FFAD0716906A8043149
:105EE00007ADFFF773FD0FCD3C1D0FC42B6823706A
:105EF0004146EDE7B9F1000FEAD07469102201A81C
:105F000002F00CF806238DF8143001AD04F10803FB
:105F10001834186859682A4603C20833A342154644
:105F2000F7D101A906A807ADFFF730FD0FCD3C1D45
:105F30000FC42B6823704946CAE70098FEF7B0FCEF
:105F4000384615B0BDE8F083024B034A1A600022C0
:105F50005A607047B8E7032068820B00252813B504
:105F600002D9002002B010BDA0F10B03022B1AD8F9
:105F7000174C2178BFF35B8F11F001010BD1204644
:105F80000191FEF78EF8019928B11248FEF712FF31
:105F90002046FEF78BF80F4B1878FEF791FD00288E
:105FA000DFD10120DEE7012809D800F065F80021E3
:105FB000007CFEF765FD80F00100C0B2D2E7093831
:105FC0000128EED8FFF742FE007CFEF701FDF2E764
:105FD000C0E70320C4E70320252838B504460D4652
:105FE0000AD8FF2908D0FFF7B9FF28B12946204673
:105FF000BDE83840FEF764BC38BD10B50446FEF776
:1060000067FC031FDBB2012B08D92046FFF7A6FF70
:1060100020B12046BDE81040FEF762BC002010BD54
:1060200010B5084C2378BFF35B8FDB0708D42046FC
:10603000FEF737F820B1FEF76BFC2046FEF736F886
:10604000014810BDD0E70320D4E7032038B5202550
:10605000142304460360856005610649284600F064
:106060003AF804496060284600F035F8E0602046C0
:1060700038BD00BF9C820B0030B50F4D2978BFF3AF
:106080005B8F11F0010487B013D12846FEF709F8A1
:1060900078B101A8FFF7DAFF01AA21460748FFF708
:1060A00059FE2846FEF702F8054A0649034800F063
:1060B0000BF8024807B030BDD8E70320DCE7032027
:1060C0009CE60320FD5C0B000B460146184601F0E0
:1060D00009BFFDF7E4BFFDF7E0BF08B5FEF704FE1A
:1060E000F8B52DED028B57EC106B55EC114B00F011
:1060F000CBF8634BB0EE408AF0EE608A93F9003043
:1061000001332AD022462B462046294601F0C4FC02
:1061100018BB32463B463046394601F0BDFC0028EC
:1061200044D1002200233046394601F083FCD8B127
:10613000002200232046294601F07CFC00283DD1A6
:1061400045EC104B00F010FF38B1204629460022E4
:10615000002301F079FC00285CD1B0EE480AF0EE93
:10616000680ABDEC028BF8BDB0EE480AF0EE680A92
:1061700000F0FAFE58B351EC180B0022002301F096
:1061800059FC0028E9D047EC106B00F0EDFE002828
:10619000E3D045EC104B00F0E7FE0028DDD0FEF721
:1061A000B3FD22239FED2E8B0360D6E720462946C0
:1061B0000022002301F03EFC0028CED09FED2A8B68
:1061C000B0EE480AF0EE680ABDEC028BF8BD47EC71
:1061D000106B00F0C9FE0028CDD045EC104B00F04C
:1061E000C3FE0028C7D053EC182B18EE100A19462E
:1061F00001F052FC20BBFEF787FD034622221A6005
:10620000304639460022002301F01EFC48B99FEDBC
:10621000188BA2E7FEF778FD21239FED178B036013
:106220009BE745EC104B00F0B3FE224651EC100BFF
:106230002B4601F0FFFB0028E9D19FED0F8B8CE787
:10624000FEF762FD0022002321210160104619465D
:1062500001F0B2FA41EC180B7FE700BFAFF300800A
:106260000000000000000000000000000000F03FFF
:10627000000000000000F07F000000000000F0FFC0
:1062800034E60320000000002DE9F04F57EC116BBD
:106290002DED0C8B27F0004A5AEA060287B03DD05C
:1062A00055EC104B724925F00048884510EE102A35
:1062B000A9462CDC11EE103ABB4636D08A4526DCC6
:1062C0006B498A4521D0B9F1000F39DB00210091DB
:1062D000002B51D1664B9A4500F0A280654B9A4540
:1062E00000F0B080BBF1804F00F0C084624B9B4552
:1062F00042D1B9F1000F3FDB45EC104B07B0BDECCC
:106300000C8BBDE8F04F00F059BD002BDBD008F13D
:10631000404808F5801858EA020309D19FED500B58
:1063200007B0BDEC0C8BBDE8F08F0CB9C245C7DDE2
:10633000524807B0BDEC0C8BBDE8F04F00F020BE1A
:106340004F498A4500F38580A1F154718A450FDDDC
:106350004FEA2A51A1F2FF31142940F39B84C1F185
:10636000340123FA01F000FA01F1994200F0ED84C2
:1063700000210091002BB1D045EC104B029200F0AF
:10638000E9FD029A5ABBB8F1000F04D0394B29F04D
:1063900040429A4223D1BBF1000F07DA53EC102B95
:1063A0003449002001F008FA41EC100BB9F1000F5C
:1063B000B6DA009B08F1404808F5801858EA030354
:1063C00040F08D8453EC102B1046194600F012FF5C
:1063D00002460B4601F0F0F941EC100BA0E7009AE1
:1063E0004FEAD973013B0493134335D0254B9A45AB
:1063F0004CDD03F104739A45234B40F3DB8398454E
:1064000040F36083BBF1000F40F3608316A3D3E930
:1064100000231046194601F0A5F841EC100B7FE768
:1064200008F1404303F5801313433FF477AF164B55
:10643000984540F37A83BBF1000FC0F2478347ECE5
:10644000106B6DE7BBF1000FC0F21A8445EC104BE6
:1064500066E7022100913BE722462B46B4E700BFE6
:10646000000000000000F03F9C7500883CE4377E8F
:106470000000F07F0000F03F0000E03FA0820B0032
:10648000FFFF3F430000E041FFFFEF3FE44B09EA1D
:106490000303002253B951EC100BE24B01F062F8F8
:1064A00041EC100B10EE908A6FF034024FEA285343
:1064B000A3F2FF339A18DC4B0592C8F3130848F097
:1064C0007F54984544F4401407DDD84B984540F379
:1064D000148401320592A4F580149FEDB96B9FEDF1
:1064E000BA7B53EC162BB0EE47CAF0EE67CA002514
:1064F000B0EE47DAF0EE67DA5BEC10ABA34650463D
:10650000594643EC1A2B00F075FE53EC1A2B8046CB
:1065100089465046594600F06FFE02460B46002061
:10652000C34901F049F941EC1B0B404653EC1B2BCE
:10653000494601F017F841EC180B0A460146CDE92F
:1065400002120021029164104BEC19AB44F000548C
:10655000DDE902AB04F500230020591904460D467D
:1065600002460B465046594600F0FCFF02460B46D9
:106570004046494600F03EFE53EC1A2B80468946C1
:106580002046294600F036FE02460B4651EC190B18
:1065900000F030FE52465B4600F0E4FF02460B4638
:1065A0004046494600F026FE53EC1B2B00F0DAFF74
:1065B00053EC182B41EC190B51EC180B00F0D2FFE7
:1065C00083A3D3E9002304460D4600F0CBFF82A34A
:1065D000D3E9002300F010FE22462B4600F0C2FF54
:1065E0007FA3D3E9002300F007FE22462B4600F0EC
:1065F000B9FF7DA3D3E9002300F0FEFD22462B4620
:1066000000F0B0FF7AA3D3E9002300F0F5FD2246A5
:106610002B4600F0A7FF78A3D3E9002300F0ECFDA0
:106620002246804689462B462046294600F09AFF9E
:1066300002460B464046494600F094FF5246044647
:106640000D465B4651EC180B00F0D6FD53EC192BB0
:1066500000F088FF22462B4600F0CEFD52468046D1
:1066600089465B465046594600F07CFF02460B4681
:1066700043EC1A2B6F4B002200F0BEFD42464B4606
:1066800000F0BAFD00240D4622462B4650465946DE
:1066900000F068FF674B82468B4600222046294661
:1066A00000F0A8FD53EC1A2B00F0A4FD02460B46A7
:1066B0004046494600F09EFD53EC182B00F052FF77
:1066C00022462B4604460D4651EC190B00F04AFFBA
:1066D00002460B462046294600F08EFD804689463C
:1066E00042464B465046594600F086FD44A3D3E946
:1066F0000023002004460D4600F034FF524641ECD2
:10670000190B5B462046294600F074FD02460B46F5
:106710004046494600F06EFD3BA3D3E9002300F05C
:1067200021FF02460B462046294614461D4638A343
:10673000D3E9002300F016FF02460B462046294607
:1067400000F05AFD53EC1D2B00F056FD80460598D5
:10675000894600F09DFE424682468B464B4651ECF0
:10676000190B00F049FD53EC1C2B00F045FD52467F
:106770005B4600F041FD52465B46002004460D4654
:1067800000F038FD53EC1C2B00F034FD53EC192BBA
:1067900000F030FD02460B464046494600F02AFD17
:1067A000009B049A013B134382468B4640F0B6811E
:1067B0009FED197BB0EE478AF0EE678A3CE000BFA0
:1067C000000000000000F03F00000000000000009A
:1067D000EF4E454A287ECA3F65DBC9934A86CD3FC6
:1067E00001411DA96074D13F4D268F515555D53FAC
:1067F000FFAB6FDBB66DDB3F033333333333E33F44
:10680000000000E009C7EE3FFD033ADC09C7EE3F98
:10681000F5015B14E02F3EBE000000000000F0BF59
:106820000000F07F000040438E98030079B60B0013
:106830000000F03F000008400023CDE9006700930E
:10684000DDE90089304642464B46394600F0D2FC2D
:1068500022462B4600F086FE32463B4606460F4651
:106860005046594600F07EFE02460B4630463946F9
:1068700000F0C2FC42464B4606460F4620462946DB
:1068800000F070FE04460D462B463046394622463F
:1068900000F0B2FCC24B9942804689468A4640F3DA
:1068A000188101F13F4303F5E003034340F0078201
:1068B000A3A3D3E900233046394600F09DFC0246ED
:1068C0000B46404649469046994622462B4600F0E4
:1068D00091FC02460B464046494601F0D3F8002899
:1068E00040F0ED81CAF30A534FF48012A3F2FE3355
:1068F00042FA03F35344AB49C3F30A52A2F2FF3204
:1069000041FA02FCC3F3130141F48011C2F11402F5
:1069100041FA02F2002023EA0C01BAF1000F0092C2
:106920000B46024602DA0099494200912046294668
:1069300000F060FC009B1B05029302460B460446D8
:106940000D463046394600F057FC89464FF00008A6
:106950007DA3D3E900234046494600F003FE2246CA
:106960002B4682468B464046494600F043FC024691
:106970000B463046394600F03DFC75A3D3E90023B1
:1069800000F0F0FD74A3D3E9002304460D46404611
:10699000494600F0E7FD02460B462046294600F036
:1069A0002BFC06460F4632463B465046594600F001
:1069B00023FC52465B4604460D4600F01BFC024693
:1069C0000B463046394600F015FC22468046894683
:1069D0002B462046294600F0C5FD61A3D3E90023DC
:1069E00006460F4600F0BEFD5FA3D3E9002300F08A
:1069F00001FC32463B4600F0B5FD5DA3D3E9002320
:106A000000F0FAFB32463B4600F0ACFD5AA3D3E956
:106A1000002300F0EFFB32463B4600F0A3FD58A3F5
:106A2000D3E9002300F0E8FB32463B4600F09AFD34
:106A300002460B462046294600F0DCFB06460F4680
:106A400032463B462046294600F08CFD02460B4666
:106A50003046394616461F4600224FF0804300F06C
:106A6000C9FB02460B463046394600F0A5FE4246B9
:106A700006460F464B462046294600F073FD424627
:106A80004B4600F0B9FB02460B463046394600F053
:106A9000B1FB22462B4600F0ADFB02460B46002020
:106AA000414900F0A7FB029A0B461344B3F5801F3F
:106AB000C0F24381194653EC182B00F053FD41EC12
:106AC000100B2DE4BBF1000FFFF6A0AC9FED2E0BD9
:106AD00026E4DFF8DCC021F00043634540F3E780A3
:106AE000324B0B4403430AD122462B4600F082FB73
:106AF00032463B4600F0BCFF00283FF4F3AE24A32F
:106B0000D3E9002351EC180B00F02CFD20A3D3E9AE
:106B1000002300F027FD41EC100B01E49FED1E7BEC
:106B2000B0EE478AF0EE678A86E6BBF1000FCDDA59
:106B300007F1004300EE106A00EE903AFFF7F0BB59
:106B4000FE822B654715973C00000000432EE63F70
:106B5000EF39FAFE422EE63F396CA80C615C20BE8C
:106B6000D0A4BE726937663EF16BD2C541BDBB3E53
:106B70002CDE25AF6A56113F93BDBE166CC1663F31
:106B80003E5555555555C53F00000000000000001A
:106B900059F3F8C21F6EA501000000000000F03F8D
:106BA000FFFF8F40FFFF0F000000F03F00346F3FFA
:106BB000FFCB9040984585DB7D4B98453FF722AC55
:106BC00051EC100B7A4B002200F014FB68A3D3E9C0
:106BD000002304460D4600F0C5FC67A3D3E900235B
:106BE00082468B462046294600F0BCFC714B41ECA6
:106BF000180B00222046294600F0B4FC02460B4642
:106C00005FA1D1E9000100F0F5FA22462B4600F021
:106C1000A9FC02460B460020674900F0EBFA224629
:106C2000804689462B462046294600F09BFC0246BA
:106C30000B464046494600F095FC53A3D3E9002398
:106C400000F090FC02460B4651EC180B00F0D2FA13
:106C50008046894642464B465046594600F0CCFA9B
:106C6000002052465B4604460D4691E522462B46DF
:106C70002046294600F076FC41EC100BFFF750BB94
:106C80004B49002022462B4600F096FD41EC100BAC
:106C9000FFF746BB002B44D1C1F114014AFA01F0C1
:106CA00000FA01F151455AD00093FFF717BB424A51
:106CB00093425BDCDDE900120291009146E634A3C9
:106CC000D3E9002351EC180B00F04CFC30A3D3E9BE
:106CD000002300F047FC41EC100BFFF721BB009BA9
:106CE000012B7FF41DAB10EE901A10EE102A01F16B
:106CF000004343EC102BFFF713BB9FED277BB0EE57
:106D000047CAF0EE67CA9FED267BB0EE47DAF0EE99
:106D100067DA9FED257B4FF4802553EC172BFFF7A7
:106D2000EBBB45EC104B009200F014F9009A002ADE
:106D30007FF492AB0092FFF726BB41EC100B00985A
:106D400000F0C2F951EC100BB5E600F00100C0F103
:106D500002010091002B3FF4C1AAFFF70DBB00F028
:106D60000100C0F102030093FFF7B8BA1B15BBE5A1
:106D7000000000604715F73F44DF5DF80BAE543E5E
:106D8000555555555555D53FFE822B654715F73F4F
:106D90009C7500883CE4377E0000004003B8E23F69
:106DA00006D0CF43EBFD4C3E000000000000F83F52
:106DB0000000F03F0000D03F0000E03F2DE9F0412F
:106DC000634A55EC104BAA4300F09F80002D10EE53
:106DD00010CA2B4654DD291563D0C3F31303A1F267
:106DE000FF37C90743F4801304D45B0003EBDC7363
:106DF0004FEA4C0C4FEADC72002602EB43037F1093
:106E00004FEA4C0C4FF0160E34464FF40012A11806
:106E1000994202DC5B1A8C1816445B00BEF1010E2D
:106E200003EBDC734FEA52024FEA4C0CEFD175468C
:106E300020204FF000420AE044D04FEADC710138D4
:106E400001EB43034FEA4C0C4FEA520243D0A342FA
:106E500002EB0E01F0DD002901EB020E0ADBA04679
:106E60001B1B614588BF03F1FF33ACEB010C1544DC
:106E70004446E2E7BEF1000FF1DB04F10108EFE761
:106E800025F00042224338D0002D4ED129464FEA4A
:106E9000DC22153913464FEA4C5C002AF7D0D602A3
:106EA00050D400205B00DD02044600F10100F9D55A
:106EB0001A4663460CFA00FCC0F12000C340091BCF
:106EC00013438AE76145B8D8002901EB020ED1DBF4
:106ED00098460023C9E753EA0C0310D168087110E3
:106EE000F30701F17F5101F5001148BF40F0004068
:106EF00001EB0753024643EC102BBDE8F0816A1CFE
:106F000016BF681C01364008E9E710EE102A10EEA3
:106F1000100A2B46294600F025FB22462B4600F09E
:106F20006BF941EC100BBDE8F08110EE102A204601
:106F3000294600F05FF902460B4600F03DFC41ECAB
:106F4000100BDAE7634620204FF0FF34B6E700BFAE
:106F50000000F07F51EC100B10EE102A21F00043DE
:106F600043EC102B704700BF82B08DED000B0198F1
:106F700040F0004000F58010C00F02B0704700BF25
:106F80009FED010B704700BF000000000000F87F7C
:106F9000F0B553EC102BC3F30A5CACF2FF311329AC
:106FA00010EE100A83B01C464FEAD37E3ADC00296B
:106FB00030DB424D45FA01FC03EA0C0515432DD0A8
:106FC00003EA5C0318434FEA5C0C0CD024EA0C0C77
:106FD0004FF48024132944FA01F10CBF4FF0004014
:106FE00000204CEA0104364901EBCE0E2346DEE9CF
:106FF000004502462946204600F0FEF8CDE9000192
:10700000DDE9000122462B4600F0F4F841EC100BBC
:1070100003B0F0BD23F00041114324D143EC102B09
:1070200003B0F0BD332908DDB1F5806FF6D1194604
:1070300000F0E2F841EC100BF2E7ACF2134C4FF029
:10704000FF3121FA0CF10A42E8D010EA51024FEA6E
:107050005103C8D020EA03034FF0804040FA0CFCF3
:1070600043EA0C00BFE7C3F313031843144A434237
:10707000034302EBCE0E1B0B620C03F400235204FD
:1070800043EA02073B46DEE9006710EE102A30466D
:10709000394600F0B1F8CDE9000132463B46DDE962
:1070A000000100F0A7F804F0004421F0004102467E
:1070B00041EA040343EC102B03B0F0BDFFFF0F00C7
:1070C000A8820B000000000038B553EC102BC3F36E
:1070D0000A5104469C4689BB10EE101A23F0004C5E
:1070E0005CEA010129D0194600223D4B3D4D10EECE
:1070F000100A00F037FAAC4202460B4616DB8C460B
:10710000C1F30A513639214440F2FE70814221DC3C
:10711000002947DC11F1350F34DA4CF250318C4242
:1071200018DC002B26A1D1E9000144DB24A3D3E91C
:10713000002300F017FA41EC100B38BD40F2FF704D
:107140008142E0D110EE100A194600F055F841ECEA
:10715000100B38BD002B1CA1D1E9000107DB1AA3DD
:10716000D3E9002300F0FEF941EC100B38BD18A163
:10717000D1E9000114A3D3E9002300F0F3F941ECB5
:10718000100BF3E72CF0FF4C2CF4E00C36314CEAFA
:107190000153104619460022134B00F0E3F941EC6D
:1071A000100B38BD2CF0FF4C2CF4E00C4CEA0153D2
:1071B00043EC102B38BD08A1D1E90001B6E700BFB0
:1071C00059F3F8C21F6EA5019C7500883CE4377E18
:1071D0009C7500883CE437FE59F3F8C21F6EA58108
:1071E00000005043B03CFFFF0000903C81F00041A4
:1071F00002E000BF83F0004330B54FEA41044FEA9C
:10720000430594EA050F08BF90EA020F1FBF54EA36
:10721000000C55EA020C7FEA645C7FEA655C00F0D2
:10722000E2804FEA5454D4EB5555B8BF6D420CDDA3
:107230002C4480EA020281EA030382EA000083EA26
:10724000010180EA020281EA0303362D88BF30BDC6
:1072500011F0004F4FEA01314FF4801C4CEA11311C
:1072600002D0404261EB410113F0004F4FEA03337B
:107270004CEA133302D0524263EB430394EA050F06
:1072800000F0A780A4F10104D5F1200E0DDB02FA75
:107290000EFC22FA05F2801841F1000103FA0EF209
:1072A000801843FA05F359410EE0A5F120050EF1CF
:1072B000200E012A03FA0EFC28BF4CF0020C43FA00
:1072C00005F3C01851EBE37101F0004507D54FF00D
:1072D000000EDCF1000C7EEB00006EEB0101B1F55D
:1072E000801F1BD3B1F5001F0CD349085FEA3000A3
:1072F0004FEA3C0C04F101044FEA445212F5800FAE
:1073000080F09A80BCF1004F08BF5FEA500C50F14A
:10731000000041EB045141EA050130BD5FEA4C0C2D
:10732000404141EB0101013C28BFB1F5801FE9D28A
:1073300091F0000F04BF01460020B1FA81F308BFAD
:107340002033A3F10B03B3F120020CDA0C3208DD79
:1073500002F1140CC2F10C0201FA0CF021FA02F154
:107360000CE002F11402D8BFC2F1200C01FA02F1C4
:1073700020FA0CFCDCBF41EA0C019040E41AA2BFE9
:1073800001EB0451294330BD6FEA04041F3C1CDAB1
:107390000C340EDC04F11404C4F1200220FA04F0D1
:1073A00001FA02F340EA030021FA04F345EA03017B
:1073B00030BDC4F10C04C4F1200220FA02F001FA3D
:1073C00004F340EA0300294630BD21FA04F02946BF
:1073D00030BD94F0000F83F4801306BF81F4801158
:1073E0000134013D4EE77FEA645C18BF7FEA655CCB
:1073F00029D094EA050F08BF90EA020F05D054EA9D
:10740000000C04BF1946104630BD91EA030F1EBFA1
:107410000021002030BD5FEA545C05D140004941A5
:1074200028BF41F0004130BD14F580043CBF01F598
:10743000801130BD01F0004545F0FE4141F470017E
:107440004FF0000030BD7FEA645C1ABF1946104659
:107450007FEA655C1CBF0B46024650EA013406BF5A
:1074600052EA033591EA030F41F4002130BD00BF19
:1074700090F0000F04BF0021704730B54FF48064D6
:1074800004F132044FF000054FF0000150E700BF57
:1074900090F0000F04BF0021704730B54FF48064B6
:1074A00004F1320410F0004548BF40424FF00001A3
:1074B0003EE700BF42004FEAE2014FEA31014FEAE6
:1074C00002701FBF12F07F4393F07F4F81F0605135
:1074D000704732F07F4208BF704793F07F4F04BF80
:1074E00041F40021704730B54FF4607401F000455D
:1074F00021F000411CE700BF50EA010208BF7047BD
:1075000030B54FF000050AE050EA010208BF7047AD
:1075100030B511F0004502D5404261EB41014FF416
:10752000806404F132045FEA915C3FF4D8AE4FF01E
:1075300003025FEADC0C18BF03325FEADC0C18BF01
:10754000033202EBDC02C2F1200300FA03FC20FA52
:1075500002F001FA03FE40EA0E0021FA02F114449F
:10756000BDE600BF70B54FF0FF0C4CF4E06C1CEAB8
:1075700011541DBF1CEA135594EA0C0F95EA0C0F29
:1075800000F0DEF82C4481EA030621EA4C5123EA9C
:107590004C5350EA013518BF52EA033541F48011CB
:1075A00043F4801338D0A0FB02CE4FF00005E1FB7E
:1075B00002E506F00042E0FB03E54FF00006E1FBC8
:1075C00003569CF0000F18BF4EF0010EA4F1FF040B
:1075D000B6F5007F64F5407404D25FEA4E0E6D414B
:1075E00046EB060642EAC62141EA55514FEAC5205C
:1075F00040EA5E504FEACE2EB4F1FD0C88BFBCF5D8
:10760000E06F1ED8BEF1004F08BF5FEA500E50F188
:10761000000041EB045170BD06F0004646EA01014E
:1076200040EA020081EA0301B4EB5C04C2BFD4EB80
:107630000C0541EA045170BD41F480114FF0000E79
:10764000013C00F3AB8014F1360FDEBF002001F0E7
:10765000004170BDC4F10004203C35DA0C341BDC61
:1076600004F11404C4F1200500FA05F320FA04F033
:1076700001FA05F240EA020001F0004221F0004167
:1076800010EBD37021FA04F642EB06015EEA430EDA
:1076900008BF20EAD37070BDC4F10C04C4F120050A
:1076A00000FA04F320FA05F001FA04F240EA0200BD
:1076B00001F0004110EBD37041F100015EEA430E8E
:1076C00008BF20EAD37070BDC4F1200500FA05F2AE
:1076D0004EEA020E20FA04F301FA05F243EA02032D
:1076E00021FA04F001F0004121FA04F220EA02003C
:1076F00000EBD3705EEA430E08BF20EAD37070BD82
:1077000094F0000F0FD101F00046400041EB010161
:1077100011F4801F08BF013CF7D041EA060195F043
:10772000000F18BF704703F00046520043EB0303FD
:1077300013F4801F08BF013DF7D043EA06037047EA
:1077400094EA0C0F0CEA135518BF95EA0C0F0CD0F5
:1077500050EA410618BF52EA4306D1D181EA03013B
:1077600001F000414FF0000070BD50EA410606BF35
:107770001046194652EA430619D094EA0C0F02D17A
:1077800050EA013613D195EA0C0F05D152EA0336BF
:107790001CBF104619460AD181EA030101F00041DD
:1077A00041F0FE4141F470014FF0000070BD41F026
:1077B000FE4141F4780170BD70B54FF0FF0C4CF400
:1077C000E06C1CEA11541DBF1CEA135594EA0C0F1F
:1077D00095EA0C0F00F0A7F8A4EB050481EA030E6C
:1077E00052EA03354FEA013100F088804FEA033353
:1077F0004FF0805545EA131343EA12634FEA022221
:1078000045EA111545EA10654FEA00260EF00041E1
:107810009D4208BF964244F1FD0404F5407402D233
:107820005B084FEA3202B61A65EB03055B084FEAC4
:1078300032024FF480104FF4002CB6EB020E75EBC1
:10784000030E22BFB61A754640EA0C005B084FEAE9
:107850003202B6EB020E75EB030E22BFB61A754666
:1078600040EA5C005B084FEA3202B6EB020E75EBB1
:10787000030E22BFB61A754640EA9C005B084FEA29
:107880003202B6EB020E75EB030E22BFB61A754636
:1078900040EADC0055EA060E18D04FEA051545EA25
:1078A00016754FEA06164FEAC30343EA52734FEACE
:1078B000C2025FEA1C1CC0D111F4801F0BD141EA47
:1078C00000014FF000004FF0004CB6E711F4801FAC
:1078D00004BF01430020B4F1FD0C88BFBCF5E06F8C
:1078E0003FF6AFAEB5EB030C04BFB6EB020C5FEA9C
:1078F000500C50F1000041EB045170BD0EF0004EF1
:107900004EEA113114EB5C04C2BFD4EB0C0541EA22
:10791000045170BD41F480114FF0000E013C90E61F
:1079200045EA060E8DE60CEA135594EA0C0F08BFE3
:1079300095EA0C0F3FF43BAF94EA0C0F0AD150EAE2
:1079400001347FF434AF95EA0C0F7FF425AF104675
:1079500019462CE795EA0C0F06D152EA03353FF49D
:10796000FDAE1046194622E750EA410618BF52EA1A
:1079700043067FF4C5AE50EA41047FF40DAF52EAEE
:1079800043057FF4EBAE12E74FF0FF3C06E000BF8B
:107990004FF0010C02E000BF4FF0010C4DF804CD98
:1079A0004FEA410C7FEA6C5C4FEA430C18BF7FEA58
:1079B0006C5C1BD001B050EA410C0CBF52EA430C86
:1079C00091EA030F02BF90EA020F0020704710F106
:1079D000000F91EA030F58BF994208BF90422CBF95
:1079E000D8176FEAE37040F0010070474FEA410C8E
:1079F0007FEA6C5C02D150EA013C07D14FEA430CAC
:107A00007FEA6C5CD6D152EA033CD3D05DF8040B1C
:107A1000704700BF8446104662468C46194663464E
:107A200000E000BF01B5FFF7B7FF002848BF10F125
:107A3000000F01BD4DF808EDFFF7F4FF0CBF01206A
:107A400000205DF808FB00BF4DF808EDFFF7EAFFE6
:107A500034BF012000205DF808FB00BF4DF808EDA1
:107A6000FFF7E0FF94BF012000205DF808FB00BF96
:107A70004DF808EDFFF7CEFF94BF012000205DF820
:107A800008FB00BF4DF808EDFFF7C4FF34BF01202D
:107A900000205DF808FB00BF4FEA410C7FEA6C5CF8
:107AA00002D150EA013C0AD14FEA430C7FEA6C5CF8
:107AB00002D152EA033C02D14FF0000070474FF070
:107AC000010070474A0011D212F5001211D20DD5F3
:107AD0006FF47873B3EB62520ED44FEAC12343F0D4
:107AE000004343EA505323FA02F070474FF000007E
:107AF000704750EA013002D14FF0FF3070474FF02D
:107B0000000070474FEA4102B2F1E04324BFB3F5F1
:107B1000001CDCF1FE5C0DD901F0004C4FEAC00204
:107B20004CEA5070B2F1004F40EB830008BF20F0E8
:107B30000100704711F0804F21D113F13872BCBFA2
:107B400001F00040704741F480114FEA5252C2F1F7
:107B50001802C2F1200C10FA0CF320FA02F018BF40
:107B600040F001004FEAC1234FEAD32303FA0CFC93
:107B700040EA0C0023FA02F34FEA4303CCE77FEA22
:107B8000625307D150EA01331EBF4FF0FE4040F46C
:107B90004000704701F0004040F0FE4040F400001B
:107BA000704700BF53B94AB9002908BF00281CBF5D
:107BB0004FF0FF314FF0FF3000F092B9ADF1080CFB
:107BC0006DE904CE00F024F8DDF804E0DDE90223DD
:107BD00004B07047D0B50C4B002206460F46FFF7A5
:107BE000C1FCFFF76FFF0446FFF742FC074B002282
:107BF000FFF7B8FC02460B4630463946FFF7FAFA63
:107C0000FFF760FF2146D0BD0000F03D0000F041CD
:107C10002DE9F047089D04468E46002B4DD18A423F
:107C2000944669D9B2FA82F252B101FA02F3C2F172
:107C3000200120FA01F10CFA02FC41EA030E944003
:107C40004FEA1C48210CBEFBF8F61FFA8CF708FB24
:107C500016E341EA034306FB07F199420AD91CEBFC
:107C6000030306F1FF3080F01F81994240F21C812E
:107C7000023E63445B1AA4B2B3FBF8F008FB103376
:107C800044EA034400FB07F7A7420AD91CEB0404AB
:107C900000F1FF3380F00A81A74240F2078164447B
:107CA000023840EA0640E41B00261DB1D440002300
:107CB000C5E900433146BDE8F0878B4209D9002D64
:107CC00000F0EF800026C5E9000130463146BDE8EE
:107CD000F087B3FA83F6002E4AD18B4202D3824258
:107CE00000F2F980841A61EB030301209E46002D07
:107CF000E0D0C5E9004EDDE702B9FFDEB2FA82F25C
:107D0000002A40F09280A1EB0C014FEA1C471FFAB9
:107D10008CFE0126200CB1FBF7F307FB131140EAA0
:107D200001410EFB03F0884208D91CEB010103F16D
:107D3000FF3802D2884200F2CB804346091AA4B22F
:107D4000B1FBF7F007FB101144EA01440EFB00FE03
:107D5000A64508D91CEB040400F1FF3102D2A64568
:107D600000F2BB800846A4EB0E0440EA03409CE707
:107D7000C6F12007B34022FA07FC4CEA030C20FAB4
:107D800007F401FA06F31C43F9404FEA1C4900FAD4
:107D900006F3B1FBF9F8200C1FFA8CFE09FB181151
:107DA00040EA014108FB0EF0884202FA06F20BD9C4
:107DB0001CEB010108F1FF3A80F08880884240F214
:107DC0008580A8F102086144091AA4B2B1FBF9F058
:107DD00009FB101144EA014100FB0EFE8E4508D953
:107DE0001CEB010100F1FF346CD28E456AD90238D8
:107DF000614440EA0840A0FB0294A1EB0E01A142BD
:107E0000C846A64656D353D05DB1B3EB080261EB2A
:107E10000E0101FA07F722FA06F3F1401F43C5E904
:107E2000007100263146BDE8F087C2F12003D8403A
:107E30000CFA02FC21FA03F3914001434FEA1C477C
:107E40001FFA8CFEB3FBF7F007FB10360B0C43EA6E
:107E5000064300FB0EF69E4204FA02F408D91CEB1E
:107E6000030300F1FF382FD29E422DD9023863441C
:107E70009B1B89B2B3FBF7F607FB163341EA0341BC
:107E800006FB0EF38B4208D91CEB010106F1FF380B
:107E900016D28B4214D9023E6144C91A46EA004602
:107EA00038E72E46284605E70646E3E61846F8E694
:107EB0004B45A9D2B9EB020864EB0C0E0138A3E7DD
:107EC0004646EAE7204694E74046D1E7D0467BE7BE
:107ED000023B614432E7304609E76444023842E736
:107EE000704700BF10B5054C13462CB10A46014639
:107EF0000220AFF3008010BD2046FCE70000000028
:107F00000A44914200F1FF3300D1704710B511F8D7
:107F1000014B03F8014F9142F9D110BD02440346D1
:107F2000934200D1704703F8011BF9E738B5104BB5
:107F30001D68AB6B0446B3B91820FCF7BDFE0246C2
:107F4000A86320B90B4B0C484221FCF7E5FE0B4916
:107F50000B4BC0E900130B4B83600B238381002183
:107F60000120C2E90401AB6B00221C615A6138BDDB
:107F700038E60320B8820B00CF820B000E33CDAB66
:107F800034126DE6ECDE050010F8012B11F8013B10
:107F9000012A28BF9A42F7D0D01A7047024B0146F7
:107FA000186800F003B800BF38E6032037B5044670
:107FB00008460D4600F00FF8421C1146204601927B
:107FC000FCF79AFE044618B1019A2946FFF798FF7C
:107FD000204603B030BD034613F8012B002AFBD125
:107FE000181A01387047000021400B005D400B005B
:107FF00085400B0089400B000000000046616E20A8
:108000004F76657272696465005265706F72742094
:1080100054656D7065726174757265004D6F746939
:108020006F6E206465746563746564210031004D72
:10803000004D6F74696F6E2073746F70706564218A
:10804000004E6F206D6F74696F6E20666F72203105
:108050003830207365636F6E6473210046004E6F85
:10806000206D6F74696F6E20666F722032302073DE
:1080700065636F6E647321207475726E696E67201C
:108080007374756666206F6666004F00303030008E
:108090007265706F72740066616E206F76657272C1
:1080A00069646520747275650066616E206F76651F
:1080B00072726964652066616C73650066616E202A
:1080C0007370656564206C6F77004C6F7700466154
:1080D0006E2053706565640066616E20737065651F
:1080E00064206D656469756D004D656469756D002A
:1080F00066616E2073706565642068696768004812
:108100006967680030323500303135003031300079
:108110000000000000000000974D0B008D4D0B008B
:10812000834D0B00794D0B006D4D0B00614D0B0025
:10813000395E0B00415E0B00554D0B004D4D0B00A1
:10814000434D0B00394D0B00715E0B0061707000E8
:1081500025592D256D2D25645425483A254D3A2560
:1081600053257A0061736374696D65000000000037
:108170000000000081530B0087530B00C5530B0018
:1081800095530B0083530B0000000000000000001B
:108190000D590B00FD580B00FF580B0000000000AC
:1081A00000000000F1590B00595A0B002F5A0B0028
:1081B0002D510B00215A0B00F3590B00035A0B00F1
:1081C000535A0B00135A0B00ED590B00000000002E
:1081D000000000005B5B0B00515B0B00475B0B007A
:1081E000FD5A0B003B5B0B002F5B0B00395E0B0055
:1081F000415E0B00235B0B001B5B0B00115B0B0054
:10820000075B0B00715E0B00000000000000000027
:10821000955B0B00015C0B00D95B0B002D510B0033
:10822000A95B0B00C55B0B00B75B0B00D35B0B00BE
:10823000975B0B009B5B0B00000000000000000040
:10824000FD5C0B00475D0B001F5D0B00FF5C0B002E
:10825000275D0B002F5D0B00375D0B003F5D0B00B2
:108260000000000000000000F95D0B00035E0B0041
:108270000D5E0B00175E0B00215E0B002D5E0B00E8
:10828000395E0B00415E0B00495E0B00555E0B0032
:108290005D5E0B00675E0B00715E0B00000000006E
:1082A000000000000000000000000000000030435B
:1082B00000000000000030C35245454E54206D615F
:1082C0006C6C6F6320737563636565646564002F10
:1082D0006D6E742F776F726B73706163652F776F3C
:1082E000726B73706163652F4743432D31302D707E
:1082F0006970656C696E652F6A656E6B696E732D4A
:108300004743432D31302D706970656C696E652D62
:1083100034385F32303230313132345F31363036DA
:108320003138303634312F7372632F6E65776C6954
:10833000622F6E65776C69622F6C6962632F73744C
:10834000646C69622F72616E642E630039450B00A4
:10835000A14D0B00E94D0B0005510B00F5510B0031
:1083600005520B002D520B00655B0B00495F0B00A3
:08837000A0F8FF7F01000000EE
:048378000000000001
:10837C000101000064810B00FF0000003CE60320BB
:10838C0000000000000000000000000000000000E1
:10839C0000000000000000000000000000000000D1
:1083AC0000000000000000000000000000000000C1
:1083BC0000000000000000000000000000000000B1
:1083CC0000000000000000000000000000000000A1
:1083DC000000000000000000000000000000000091
:1083EC00FFFFFFFF00000102030405060708090A4E
:1083FC000B0C0D0E0F101112131415161718191A49
:08840C001B1C1D1E1F2028008F
:048414007856341250
:04000003B0004020E9
:00000001FF
