:02000002B0004C
:1040000000400B00F8600B000000060017000502DE
:0840100004011F0C0000000078
:04401800E45B0B005A
:10401C0009480A49884208B505D0094A824202D0AB
:10402C00121A01F065FD0748074A0021121A01F027
:10403C006DFD014808BD00BF60E6032064600B0005
:10404C00CCE60320CCE60320F0E7032070B5074E46
:10405C00074C01F04BFCA41BA4080025A54200D181
:10406C0070BD56F8043B98470135F7E73C600B00F0
:10407C0060600B0000F024B808B500F055F8BDE8FE
:10408C00084001F0EBBB00F01FBC00F01DBC00F0C1
:10409C0023BC0078B0FA80F040097047012303700C
:1040AC007047000013B5054B1B788DF800303C238E
:1040BC00044600F02BFE204602B010BDD0E60320D3
:1040CC0008B501F07FFB4FF4165101F06FFB084A65
:1040DC000849094800F023FD01F0D2FA4FF41651BB
:1040EC0001F0CAFABDE8084003211C2001F06EBCA7
:1040FC00F85B0B0059430B00FF4A0B0038B5046802
:10410C0005467CB16368013B63605BB9236820465C
:10411C009B689847A368013BA3601BB923682046A2
:10412C00DB689847284638BDF7B501F073FC0020D2
:10413C0000F00EFA044601F06DFC012000F008FAC4
:10414C0014BB694A69496A4C6846FFF7ABFF01A882
:10415C00FFF7D4FF1C2001F04AFCB0FA80F04009B4
:10416C00206001F02FFB2468002C05460ADA2D2173
:10417C0001F012F961420A22284603B0BDE8F04072
:10418C0001F023B92146F6E7012C40F0AA80594AE8
:10419C005649574D584F6846FFF784FF01A8FFF763
:1041AC00ADFF2B683B601C2001F021FCB0FA80F0C5
:1041BC004009286001F006FB2C68002C06467DDACD
:1041CC002D2101F0E9F8614230460A2201F0FDF898
:1041DC003F684A4C4A4E002F72D12D68012D1AD1DE
:1041EC0001F0F0FA474901F0E6F801F049FA4649C6
:1041FC0001F0CEF801F044FA444901F0C9F801F09D
:10420C00E1FA434901F0D7F82770357001F0DAFA7A
:10421C00404901F0D0F83378CBB13F4D2B78B3B196
:10422C0001F02EFA3D4901F0B3F801F0CBFA3C490C
:10423C0001F0C1F8002333702B7001F0C3FA394937
:10424C0001F0B9F801F0BEFA374901F0B4F823785F
:10425C00002B46D000F06CF9344B1B68C01A42F2AC
:10426C000F7398423DD901F0ADFA314901F0A3F832
:10427C0001F006FA2F4901F08BF801F0A3FA2E4950
:10428C0001F099F801F0FCF91F4901F081F801F0F7
:10429C00F7F92A4901F07CF801F094FA284901F069
:1042AC008AF8002323701C4B01221A7001F08AFA41
:1042BC00244903B0BDE8F04001F07DB8214683E706
:1042CC00012FA8D12D68002DA5D101F07BFA1E4934
:1042DC0001F071F82770357000F02AF9134B186053
:1042EC0099E703B0F0BD00BF055C0B002D5C0B0023
:1042FC000CE703203C5C0B0010E7032060E6032076
:10430C0008E70320595C0B008D5D0B006A5C0B0009
:10431C006E5C0B00815C0B0009E70320DE5C0B007C
:10432C00E05C0B00115D0B00325D0B00D4E603204A
:10433C00535D0B007B5D0B007D5D0B008F5D0B00F7
:10434C00935D0B00A25D0B00B05C0B0030B54049D7
:10435C0085B0044601F0EFF80546D0B101F032FA11
:10436C0001243C4901F014F8ADF8064001F052FB71
:10437C0002220DF10601002000F0F2F8344A364911
:10438C0002A8FFF78FFE03A8FFF7B8FE012005B0C7
:10439C0030BD3249204601F0CEF880B101F012FA5E
:1043AC002F4900F0F5FFADF8065001F033FB022267
:1043BC000DF10601284600F0D3F8284ADFE7294919
:1043CC00204601F0B8F890B101F0FCF9012426491F
:1043DC0000F0DEFFADF8064001F01CFB02220DF1EF
:1043EC000601204600F0BCF8204A2149C8E72149C3
:1043FC00204601F0A0F888B101F0E4F902241E492E
:10440C0000F0C6FFADF8064001F004FB22460DF1AA
:10441C000601012000F0A4F8184AE6E718492046E6
:10442C0001F089F888B101F0CDF9164900F0B0FF20
:10443C000323ADF8063001F0EDFA02220DF106016E
:10444C00012000F08DF8104ACFE74FF0FF309EE7C7
:10445C00CD5D0B00C05D0B00F85B0B00DF5D0B004E
:10446C00D25D0B00EF5D0B00E55D0B00F35D0B0007
:10447C00F75D0B000B5E0B00015E0B00125E0B0078
:10448C00235E0B00195E0B00285E0B0038B5134B36
:10449C00134D144C00211970012000F069F91249D8
:1044AC00284601F01AF82846104D114A214601F011
:1044BC0005FB1049284601F010F828460E4D0C4A11
:1044CC00214601F0FBFA0D49284601F006F8214679
:1044DC002846074ABDE8384001F0F0BAD0E6032080
:1044EC00D8E6032051540B002D5E0B00F8E6032098
:1044FC00CCE60320315E0B00E8E60320355E0B00B2
:10450C0008B5024B1B685B6C019308BD48020300A5
:10451C0008B5024B1B689B6C019308BD4802030055
:10452C0008B5024B1B685B68019308BD18020300B9
:10453C0008B5024B1B685B69019308BD18020300A8
:10454C0008B5024B1B689B6A019308BD1802030057
:10455C0008B5024B1B68DB6A019308BD1802030007
:10456C0008B5024B1B689B6C019308BD1802030035
:10457C0008B5024B1B689B68019308BD2C02030015
:10458C0008B5024B1B68DB68019308BD2C020300C5
:10459C0008B5024B1B685B69019308BD2C02030034
:1045AC0008B5024B1B681B6A019308BD2802030067
:1045BC0008B5024B1B685B6A019308BD2802030017
:1045CC0008B5024B1B689B6A019308BD28020300C7
:1045DC0008B5024B1B68DB6A019308BD2802030077
:1045EC0008B5024B1B681B6B019308BD2802030026
:1045FC0008B5024B1B685B6B019308BD28020300D6
:10460C0008B5024B1B681B6C019308BD2802030004
:10461C0008B5024B1B685B69019308BD640203007B
:10462C0008B5024B1B689B68019308BD6802030028
:10463C0008B5024B1B68DB68019308BD68020300D8
:10464C0008B5024B1B68DB69019308BD30020300FF
:10465C0008B5024B1B681B6A019308BD30020300AE
:10466C0008B5024B1B681B68019308BD3C02030094
:10467C0008B5024B1B68DB68019308BD3C020300C4
:10468C0008B5024B1B681B69019308BD3C02030073
:10469C0008B5024B1B685B69019308BD3C02030023
:1046AC0008B5024B1B689B69019308BD3C020300D3
:1046BC0008B5024B1B68DB69019308BD3C02030083
:1046CC0008B5024B1B681B6A019308BD3C02030032
:1046DC0008B5024B1B689B6A019308BD3C020300A2
:1046EC0008B5024B1B68DB6A019308BD3C02030052
:1046FC0008B5024B1B681B68019308BD4C020300F4
:10470C0008B5024B1B685B68019308BD4C020300A3
:10471C0008B5024B1B681B69019308BD4C020300D2
:10472C0008B5024B1B685B69019308BD4C02030082
:10473C0008B5024B1B689B69019308BD4C02030032
:10474C0008B5024B1B68DB69019308BD4C020300E2
:10475C0008B5024B1B681B6A019308BD4C02030091
:10476C0008B5024B1B685B68019308BD200203006F
:10477C0008B5024B1B68DB6A019308BD20020300DD
:10478C0008B5024B1B68DB6C019308BD20020300CB
:10479C0008B5024B1B685B6D019308BD200203003A
:1047AC0008B5034B1B68D3F88830019308BD000093
:1047BC002002030008B5034B1B68D3F89430019317
:1047CC0008BD00002002030008B5024B1B685B68A3
:1047DC00019308BD4402030008B5024B1B685B69DA
:1047EC00019308BD4402030008B5024B1B681B6A09
:1047FC00019308BD4402030008B5024B1B68DB6B38
:10480C00019308BD4402030008B5024B1B685B68AA
:10481C00019308BD4002030008B5024B1B689B685E
:10482C00019308BD4002030008B5024B1B68DB680E
:10483C00019308BD4002030008B5024B1B681B69BD
:10484C00019308BD4002030008B5024B1B685B696D
:10485C00019308BD4002030008B5024B1B689B691D
:10486C00019308BD4002030008B5024B1B68DB69CD
:10487C00019308BD4002030008B5024B1B681B6A7C
:10488C00019308BD4002030008B5024B1B681B6B6B
:10489C00019308BD4002030008B5024B1B685B6B1B
:1048AC00019308BD4002030008B5024B1B681B6C4A
:1048BC00019308BD4002030008B5024B1B685B6CFA
:1048CC00019308BD4002030008B5024B1B681B682E
:1048DC00019308BD1C02030008B5024B1B685B6802
:1048EC00019308BD1C02030008B5024B1B689B68B2
:1048FC00019308BD1C02030008B5024B1B68DB6A60
:10490C00019308BD1C02030008B5024B1B681B6B0E
:10491C00019308BD1C02030008B5024B1B681B6CFD
:10492C00019308BD1C02030008B5024B1B685B6CAD
:10493C00019308BD1C02030010B5836804460BB933
:10494C0001F0C5F8C3689847A3681BB10322214640
:10495C002046984720461021BDE8104001F0B3B81E
:10496C0010B50446006808B1FFF7D2FD204610BD13
:10497C0010B58368044613B10322014698472046BC
:10498C0010BD13B50B460246D0E900016C4684E815
:10499C00030093E8030082E8030094E8030083E833
:1049AC00030002B010BD000010B5064C00232046D9
:1049BC002360FFF7A5FD2046034A0449BDE81040DB
:1049CC0001F07CB814E70320CCE603206D490B0002
:1049DC00002240681146FFF72FBF002240681146A5
:1049EC00FFF74ABF002240681146FFF755BF4068E9
:1049FC000022FFF749BF4068002281F00101FFF758
:104A0C0033BF002340681A461946FFF725BF002321
:104A1C0040681A461946FFF717BF00224068114636
:104A2C00FFF7FABE406800220221FFF7FDBE00230B
:104A3C0040681A46FFF7E8BE084B10B528242246FA
:104A4C001846002101F062F8054B04804FF0FF324C
:104A5C00426004225A60034A1A6010BD20E703200A
:104A6C0018E70320445E0B0070470020704710B518
:104A7C001021044601F027F8204610BD08B5FFF7B9
:104A8C00F6FF08BD30B500224FF69C74026084809E
:104A9C008D888C800C68858004600A6030BD10B5F0
:104AAC0004460068FFF718FF204610BD38B5C468EF
:104ABC00F4B12378022B03D104F10C00FFF7EFFFC4
:104ACC00656835B12846FFF753FF1021284600F0E2
:104ADC00FAFFA56835B12846FFF74AFF1021284692
:104AEC0000F0F1FF20461421BDE8384000F0EBBF88
:104AFC0038BD10B588B00446684600F0EEFC694637
:104B0C0004A800F00DFD04A8A047044604A800F07A
:104B1C0099FC684600F096FC204608B010BD1FB505
:104B2C000023CDE90201019210241A466946184669
:104B3C00ADF80230ADF80040FFF746FE04B010BDF2
:104B4C000B6803604B68436013B15A6801325A60BA
:104B5C00704737B5044668460D46FFF7F1FF009BDA
:104B6C00019A23606260002301A801930093FFF770
:104B7C00C5FA35B1281DFFF7C1FA0821284600F007
:104B8C00A2FF204603B030BD826810B50AB900F010
:104B9C009EFFBDE81040C368184708B5006800F1D7
:104BAC001001FFF7F1FF08BD826810B50AB900F0DB
:104BBC008EFFBDE81040C368184708B5006800F1C7
:104BCC001001FFF7F1FF08BD38B500230446036060
:104BDC0010200D46FFF757FA28B10123C0E9013325
:104BEC00024B0360C5602060204638BD805E0B0020
:104BFC0038B5002383608B6804460D462BB1022226
:104C0C009847EB68E360AB68A360204638BD0000B2
:104C1C00F0B589B004686846FFF734FF4FF0020323
:104C2C00D4E84F2F002A03D1C4E8413F0029F7D123
:104C3C0025D104F10C0569462846FFF723FFBFF385
:104C4C005B8F01236370002004F10803BFF35B8FBB
:104C5C0053E8006F43E80002002AF9D1BFF35B8FE1
:104C6C006EB1FFF78DFD78B129463046FFF78CFF0A
:104C7C003046FFF77DFE1021304600F024FF6846D9
:104C8C00FFF70DFF09B0F0BD314602A8FFF7B0FFEA
:104C9C00E068B4F9105008B100F078FF06901020CD
:104CAC00ADF81C50FFF7EFF90546E8B10027876017
:104CBC001820FFF7E8F9044688B10146876002A87E
:104CCC00FFF75FFE049BA268A360059B049206A9F4
:104CDC00E268E36004F110000592FFF7D3FE084B85
:104CEC00EB60084B2C60AB6006A8FFF7D8FE02A85F
:104CFC00FFF73EFE002229460348FFF749FDB7E7C0
:104D0C00A74B0B00294E0B0045490B002DE9F04F2A
:104D1C008BB005469DF850A00F4690469946FFF77C
:104D2C005BFD07AE834638BB4FF62E73059005A985
:104D3C003046ADF81830FFF7A5FE1420FFF7A3F9A5
:104D4C00044648B1022303700123C0E901BB437040
:104D5C0031460C30FFF796FE2846214640F8044BAE
:104D6C00FFF732FF3046FFF79AFE05A8FFF797FED4
:104D7C0028460BB0BDE8F08F0C2300241420CDE99D
:104D8C0008440793FFF77FF9014618B1C0E90144C5
:104D9C000470447004A80391FFF716FF1E4B089390
:104DAC000820FFF770F9044610B103A9FFF7C8FEFD
:104DBC0000965FFA8AF34A46414638460994FFF753
:104DCC0013FDB8B9039B5B7803F0FF0293B94FF660
:104DDC009C7305A903A80592ADF81830FFF718FFCE
:104DEC0005A8FFF75CFE05A80999FFF7B2FE06A817
:104DFC00FFF784F903A905A8FFF7A2FE059B069A05
:104E0C002B606A60002306A806930593FFF776F9DA
:104E1C0004A8FFF773F9ABE7A54E0B00012AF8B510
:104E2C00054603D10B6803600020F8BD022A10D0A0
:104E3C00032AF9D10468002CF6D004F11000FFF716
:104E4C002EFE2046FFF794FD1821204600F03BFE75
:104E5C00EAE718200E68FFF716F9044650B1314600
:104E6C00FFF7C6FE3069B6F9147008B100F08EFE7B
:104E7C002061A7822C60D7E738B5002383608B684C
:104E8C0004460D462BB102229847EB68E360AB68F1
:104E9C00A360204638BD0000F0B589B004460D462D
:104EAC0001A81146FFF755FEA4B124B21DB1284646
:104EBC0000F06CFE054601A803A90395ADF810405F
:104ECC00FFF7A6FE03A8FFF7EAFD02A8FFF716F905
:104EDC0009B0F0BD019D0123D5E84F2F002A03D165
:104EEC00C5E8413F0029F7D1EFD12B73BFF35B8F9E
:104EFC006B702B1DBFF35B8F53E8006F43E80042D0
:104F0C00002AF9D1BFF35B8F002EDED02046FFF7CD
:104F1C0037FC074660B105F10C013046FFF744FE43
:104F2C003046FFF725FD1021304600F0CCFDCCE7D4
:104F3C00314603A8FFF7A0FF2B7B8DF81C30102007
:104F4C00FFF7A1F80546D0B187601420FFF79BF856
:104F5C00044678B18760014603A8FFF712FD059B54
:104F6C00A268A360069B0592E268E3609DF81C3082
:104F7C0006922374064BEB60064B2C60AB6003A8C7
:104F8C00FFF7F6FC002229460348FFF701FCC7E7B0
:104F9C00C74B0B00A94F0B0045490B00012A70B5FC
:104FAC00044603D10B680360002070BD022A0CD0AC
:104FBC00032AF9D10468002CF6D02046FFF7D8FC60
:104FCC001421204600F07FFDEEE714200E68FFF759
:104FDC005AF8054620B13146FFF74EFF337C2B744F
:104FEC002560E1E7002240681146FFF745BC00222E
:104FFC0040681146FFF750BC40680022FFF744BCE4
:10500C004068002281F00101FFF72EBC00234068AC
:10501C001A461946FFF720BC002340681A46194669
:10502C00FFF712BC002240681146FFF705BC0022B6
:10503C0040681146FFF7F0BB406800220221FFF7E1
:10504C00F3BB002340681A46FFF7DEBB024B03227A
:10505C005A60024A1A60704748E703209C5E0B00B6
:10506C007047F8B5064615460C468F18BC4206D05C
:10507C00336814F8011B9B6830469847F6E72846BE
:10508C00F8BD007C0022FFF78BBA007C0021FFF7F3
:10509C008FBA007C0021FFF793BA007C0021FFF748
:1050AC0097BA007C0021FFF79BBA10B51421044677
:1050BC0000F009FD204610BD10B54FF47A7304467C
:1050CC0008460021C4E90113034B236020741146E8
:1050DC00FFF796FA204610BDD85E0B00704710B54E
:1050EC001821044600F0EFFC204610BDF0B5037DFE
:1050FC00062B8DB00E4600F104074FF0000412D0C1
:10510C0000F1080515F8011D0A22304600F05DF982
:10511C00AF42044419D0002CF4D02E21304600F0BC
:10512C003BF90444EEE72F236A4639460A208DF8F2
:10513C000040FFF76DFA684600F045FD3368024603
:10514C00DB68694630469847044620460DB0F0BDF2
:10515C0010B5054B0446112240F8043B002100F029
:10516C00D5FC204610BD00BF005F0B000346074A6C
:10517C0010B543F8042B01F1100251F8044B43F81D
:10518C00044B9142F9D10A781A7010BD005F0B00E4
:10519C0010B59DF8084044EA032343EA024242EA70
:1051AC00016104234160037510BD000007B5064B77
:1051BC000360CB7800938B784A780978FFF7E8FF87
:1051CC0003B05DF804FB00BF005F0B00014B024A0B
:1051DC001A60704750E703200C5F0B0000234068F7
:1051EC001A46FFF711BB406800220221FFF71CBBD7
:1051FC00002240681146FFF70FBB002240681146A1
:10520C00FFF71ABB002340681A461946FFF71CBB70
:10521C00002340681A461946FFF71EBB4068002160
:10522C00FFF742BB40680021FFF746BB40680022F5
:10523C0081F00101FFF718BB40680022FFF724BB87
:10524C00002240681146FFF727BB00224068114638
:10525C00FFF712BB2DE9F04395B014460D460746F7
:10526C00FFF776FF00211C220DA8009100F04EFCE8
:10527C0040230C9320466B460CAA0021FFF7D8F96B
:10528C00044600284BD1024601216868FFF7D4FA86
:10529C000221804622466868FFF7CEFA009E8146BE
:1052AC002146002E3BD0002939D17368022B03D044
:1052BC000A2B11D0F669F4E7B8F1000FFAD0716936
:1052CC0006A8043107ADFFF771FF0FCD3C1D0FC4CD
:1052DC002B6823704146EDE7B9F1000FEAD07469F1
:1052EC00102201A800F012FC06238DF8143001AD39
:1052FC0004F108031834186859682A4603C20833A5
:10530C00A3421546F7D101A906A807ADFFF72EFF5A
:10531C000FCD3C1D0FC42B6823704946CAE700987B
:10532C00FFF77EF9384615B0BDE8F083024B034A0F
:10533C001A6000225A60704754E70320185F0B0074
:10534C00F8B506460D468F180024BD420CD03368C4
:10535C0015F8011B9B6830469847031E01DB1C4463
:10536C00F3E7002C08BF1C462046F8BD13B50446D5
:10537C00084659B1019100F026FC23680199DB68BD
:10538C000246204602B0BDE81040184702B010BDDE
:10539C0008B5FFF7EBFF08BD03689B68184738B5E5
:1053AC000D210546FFF7F8FF0A2104462846FFF7B2
:1053BC00F3FF204438BD38B50546FFF7D7FF044648
:1053CC002846FFF7ECFF204438BD30B58BB00023E6
:1053DC00012A8DF8243098BF0A2209AC0D46B1FB86
:1053EC00F2F101FB125303F0FF03092B94BF30338E
:1053FC003733DBB2AA4204F8013DEFD92146FFF75F
:10540C00B5FF0BB030BD10B50446FFF7B1FA20461E
:10541C0010BD00000348044A04490023836000F0D7
:10542C004DBB00BF5CE70320CCE6032013540B00FC
:10543C0010B5044608462170FFF702F9002363609B
:10544C00204610BD10B504460068FFF745FA20460B
:10545C0010BD10B50446006808B1FFF73DFA0023F3
:10546C00C4E90133236010BD38B504460D4600680D
:10547C000131FFF739FA10B1C4E90005012038BD3C
:10548C0010B50368044623B143688B4201D3012055
:10549C0010BD2046FFF7E8FF0028F9D0A368002BC9
:1054AC00F5D122681370F2E737B50D46114601921B
:1054BC000446FFF7E5FF019A28B92046FFF7C9FF1C
:1054CC00204603B030BDA2602946206800F010FBD6
:1054DC002268A3680021D154F2E7002313B5C0E978
:1054EC00003304468360037341B10846019100F018
:1054FC006AFB019902462046FFF7D6FF204602B010
:10550C0010BD884210B5044605D00B682BB18A68D3
:10551C001946FFF7C9FF204610BDFFF79AFFFAE7BF
:10552C0010B500230446C0E9003383600373FFF712
:10553C00E8FF204610BD08B582683AB921B1087859
:10554C00B0FA80F0400900E0012008BD006809B9FC
:10555C000078F5E700F010FBF2E710B504460068A0
:10556C0018B1FFF7B9F90023236010BD10B504463C
:10557C00FFF7F3FF204610BD10B5094B094C022272
:10558C001A600020084BA360C4E90000FFF7E8F89C
:10559C002046064A0649BDE8104000F08FBA00BF0D
:1055AC0078E703206CE703200000FFFFCCE6032024
:1055BC0079550B00024B1A68024B1A60704700BFFA
:1055CC0064E603207CE7032070474174704708B5FC
:1055DC00007CFFF77DF820EAE07008BD08B5007C80
:1055EC00FFF74EF820EAE07008BD08B5007CFFF725
:1055FC0057F840EAE07008BD08B5007CFFF748F8A2
:10560C0040EAE07008BD007CFFF752B837B5457C26
:10561C0004462DB1207C03B0BDE83040FFF728B81C
:10562C00007C0191FFF754F800280199F2DC284620
:10563C0003B030BD10B51421044600F044FA2046E6
:10564C0010BD000010B54FF0000C04460846114682
:10565C004FF47A72C4E901C2044A22600122207418
:10566C0062741A46FEF7FCFF204610BD705F0B00FB
:10567C00007C0023FFF734B80022FFF7F9BF0000CD
:10568C00F7B51B4D2E684EB98420FEF7FCFC044682
:10569C0018B18422314600F039FA2C60154E376867
:1056AC004FB98420FEF7EFFC044618B1842239462A
:1056BC0000F02CFA3460104C2178BFF35B8F11F0A2
:1056CC00010112D120460191FEF7E3FC019960B172
:1056DC002A6833680948FFF7B5FF2046FEF7DEFC61
:1056EC00074A0849054800F0E9F9044803B0F0BD41
:1056FC0084E7032088E7032080E703208CE703205E
:10570C00CCE60320D5550B0041747047704708B5A3
:10571C000021007CFFF70CF840EAE07008BD08B5EA
:10572C000121007CFFF704F840EAE07008BD08B5E1
:10573C00007CFEF7F5FF20EAE07008BD08B5007CA0
:10574C00FEF7E6FF20EAE07008BD13B50446007CC6
:10575C000191FEF7E5FF0028019901DC607C20B186
:10576C00207CFEF7EDFF20EAE07002B010BD007C5B
:10577C00FEF7EEBF10B51421044600F0A4F9204644
:10578C0010BD000010B54FF47A7304460846002192
:10579C00C4E90113044B2360012320746374114684
:1057AC00FEF7A6FF204610BDA05F0B00007C002278
:1057BC00FEF7A6BF10B514220446002100F0A6F98E
:1057CC00204610BD10B5104C88B003A8FFF7F2FFAF
:1057DC002178BFF35B8F11F0010111D120460191AB
:1057EC00FEF757FC019958B103AA0848FFF7CAFF06
:1057FC002046FEF753FC064A0649044800F05EF9C1
:10580C00024808B010BD00BFA0E70320A4E70320A6
:10581C00CCE6032019570B00014B1860704700BFF2
:10582C0068E6032008B50B4B43B1FFF7CBFF0368C9
:10583C001B699847002801DDAFF30080064B43B18C
:10584C00FFF71EFF03681B699847002801DDAFF3C3
:10585C00008008BD000000000000000008B5FFF744
:10586C00E1FFFEF765FE014B186008BDCCE7032095
:10587C000548064A064908B5121A00F039F9054BD5
:10588C00054A1A6008BD00BF00F4032004F403208D
:10589C0060600B0000F403201E1C279A07B5002340
:1058AC0000931A466FF07701FEF784FF03B05DF8A2
:1058BC0004FB000007B543880A2B08D0502B0BD1F2
:1058CC00094B1B684BB103B05DF804EB1847FFF7AD
:1058DC00E5FF03B05DF804FB002300931A466FF05C
:1058EC007701FEF767FFF4E7BCE7032010B5124819
:1058FC000021FFF719F8114B1A68114B9A42114B02
:10590C000CBF012200221A7001D0FFF7B1FFFEF785
:10591C0007FE044600F002F90B4B13B12046AFF31F
:10592C00008000210848FEF767FFBDE810400748DB
:10593C000021FEF735BF00BF25580B0000F40320F3
:10594C001E1C279AB8E7032000000000C1580B006A
:10595C00252813B502D9002002B010BDA0F10B030D
:10596C00022B1AD8174C2178BFF35B8F11F0010171
:10597C000BD120460191FEF78CFB019928B11248FE
:10598C00FFF756FD2046FEF789FB0F4B1878FEF704
:10599C005FFE0028DFD10120DEE7012809D800F0E6
:1059AC0065F80021007CFEF723FE80F00100C0B2F8
:1059BC00D2E709380128EED8FFF762FE007CFEF72B
:1059CC007FFEF2E7C0E70320C4E70320252838B5A3
:1059DC0004460D460AD8FF2908D0FFF7B9FF28B1B5
:1059EC0029462046BDE83840FEF7C2BD38BD10B58B
:1059FC000446FEF7C5FD031FDBB2012B08D9204678
:105A0C00FFF7A6FF20B12046BDE81040FEF7C0BD51
:105A1C00002010BD10B5084C2378BFF35B8FDB075B
:105A2C0008D42046FEF735FB20B1FEF789FD204651
:105A3C00FEF734FB014810BDD0E70320D4E7032068
:105A4C0038B520251423044603608560056106499A
:105A5C00284600F03AF804496060284600F035F812
:105A6C00E060204638BD00BFC85F0B0030B50F4D5D
:105A7C002978BFF35B8F11F0010487B013D128464E
:105A8C00FEF707FB78B101A8FFF7DAFF01AA214660
:105A9C000748FFF711FB2846FEF700FB054A0649AD
:105AAC00034800F00BF8024807B030BDD8E70320DC
:105ABC00DCE70320CCE603206D500B000B460146BF
:105ACC00184600F007B8FEF7E2BAFEF7DEBA08B5E2
:105ADC00FEF712FF10B5054C13462CB10A460146D1
:105AEC000220AFF3008010BD2046FCE70000000050
:105AFC000A44914200F1FF3300D1704710B511F800
:105B0C00014B03F8014F9142F9D110BD02440346F9
:105B1C00934200D1704703F8011BF9E738B5104BDD
:105B2C001D68AB6B0446B3B91820FEF7CDFE0246D8
:105B3C00A86320B90B4B0C484221FEF7EDFE0B4934
:105B4C000B4BC0E900130B4B83600B2383810021AB
:105B5C000120C2E90401AB6B00221C615A6138BD03
:105B6C0068E60320C95F0B00E05F0B000E33CDAB82
:105B7C0034126DE6ECDE050010F8012B11F8013B38
:105B8C00012A28BF9A42F7D0D01A7047024B01461F
:105B9C00186800F003B800BF68E6032037B5044668
:105BAC0008460D4600F00FF8421C114620460192A3
:105BBC00FEF7AAFE044618B1019A2946FFF798FF92
:105BCC00204603B030BD034613F8012B002AFBD14D
:105BDC00181A0138704700001D400B0059400B008B
:105BEC0081400B0085400B000000000046616E20D8
:105BFC004F766572726964650072756E6E696E6758
:105C0C00206669727374206C6F6F702062632066FB
:105C1C00616E206F766572726964652069732030DD
:105C2C000054657374696E67207374756666210021
:105C3C0072756E6E696E6720326E64206C6F6F7059
:105C4C002C2076616C75652069732031004D6F7462
:105C5C00696F6E206465746563746564210030330C
:105C6C0030005475726E65642066616E7320746FBB
:105C7C0020333025004D6F74696F6E206465746538
:105C8C006374656421206C6967687473436F6E6418
:105C9C006974696F6E5F312073657420746F207442
:105CAC00727565004D6F74696F6E2073746F7070D0
:105CBC00656421206C69676874436F6E64697469EC
:105CCC006F6E5F312073657420746F2066616C7326
:105CDC0065004D00626F7468206C6967687420639E
:105CEC006F6E646974696F6E7320747275652C20A5
:105CFC00736574206C696768747320746F204D2011
:105D0C006D6F6465006C6967687473436F6E64696A
:105D1C0074696F6E5F3120726573657420746F20C7
:105D2C0066616C7365006C6967687473436F6E644D
:105D3C006974696F6E5F3220726573657420746F5D
:105D4C002066616C7365004E6F206D6F74696F6EA9
:105D5C0020666F72203135206D696E21207475724A
:105D6C006E696E67207374756666206F6666004F89
:105D7C0000536574206C696768747320746F204FCE
:105D8C004646003030300046616E732073657420D7
:105D9C00746F203025006C6967687473436F6E6490
:105DAC006974696F6E5F322073657420746F207430
:105DBC007275650066616E206F76657272696465D6
:105DCC0020747275650066616E206F7665727269FB
:105DDC0064652066616C73650066616E2073706526
:105DEC006564206C6F77004C6F770046616E2053B2
:105DFC00706565640066616E207370656564206D06
:105E0C00656469756D004D656469756D0066616EDC
:105E1C002073706565642068696768004869676805
:105E2C0000303238003031350030313000000000A5
:105E3C0000000000000000003B4A0B00314A0B0040
:105E4C00274A0B00DD490B001B4A0B000F4A0B00C5
:105E5C0029520B0031520B00034A0B00FB490B007B
:105E6C00F1490B00E7490B0061520B0000000000E8
:105E7C0000000000754A0B007B4A0B00B94A0B006E
:105E8C00894A0B00774A0B0000000000000000005C
:105E9C004F500B0045500B003B500B0031500B008A
:105EAC0025500B0019500B0029520B0031520B00DE
:105EBC000D500B0005500B00FB4F0B00F14F0B006E
:105ECC0061520B0000000000000000006D500B0040
:105EDC00B7500B008F500B006F500B0097500B00FE
:105EEC009F500B00A7500B00AF500B0000000000A0
:105EFC0000000000F9500B00E9500B00EB500B00B8
:105F0C00617070000000000000000000E9510B00FF
:105F1C00F3510B00FD510B0007520B0011520B00FB
:105F2C001D520B0029520B0031520B0039520B0041
:105F3C0045520B004D520B0057520B0061520B0097
:105F4C0025592D256D2D25645425483A254D3A2586
:105F5C0053257A0061736374696D6500000000005D
:105F6C0000000000D5550B0041560B0019560B00D4
:105F7C004D530B00E9550B0005560B00F7550B0064
:105F8C0013560B00D7550B00DB550B00000000001F
:105F9C000000000019570B0081570B0057570B00DE
:105FAC004D530B0049570B001B570B002B570B0085
:105FBC007B570B003B570B0015570B000052454508
:105FCC004E54206D616C6C6F6320737563636565F3
:105FDC00646564002F746D702F6A656E6B696E73E7
:105FEC002D4743432D31302D706970656C696E659A
:105FFC002D34385F32303230313132345F3136301B
:10600C00363138303633392F7372632F6E65776CB7
:10601C0069622F6E65776C69622F6C6962632F738E
:10602C0074646C69622F72616E642E6300000000F0
:10603C0099440B00B5490B00454A0B0059500B0015
:10604C00D9510B0039530B0021540B0085550B0013
:04605C00C1550B001F
:04606000000000003C
:1060640001000000605F0B006CE6032000000000EC
:10607400000000000000000000000000000000001C
:10608400000000000000000000000000000000000C
:1060940000000000000000000000000000000000FC
:1060A40000000000000000000000000000000000EC
:1060B40000000000000000000000000000000000DC
:0C60C400000000000000000000000000D0
:1060D000FFFFFFFF00000102030405060708090A8D
:1060E0000B0C0D0E0F101112131415161718191A88
:0860F0001B1C1D1E1F202800CF
:0460F8007856341290
:04000003B000401CED
:00000001FF
