:02000002B0004C
:1040000000400B00F45A0B000000060017000502E8
:0840100004011F0C0000000078
:04401800C0570B0082
:10401C0009480A49884208B505D0094A824202D0AB
:10402C00121A01F053FB0748074A0021121A01F03B
:10403C005BFB014808BD00BF98E60320645A0B00E7
:10404C0000E7032000E70320EDE7032070B5074EDF
:10405C00074C01F0DBFAA41BA4080025A54200D1F3
:10406C0070BD56F8043B98470135F7E73C5A0B00F6
:10407C00605A0B0000F08EB808B500F0BFF8BDE830
:10408C00084001F07BBA00F0B3BA00F0B9BA00787E
:10409C00B0FA80F0400970470123037070470000AC
:1040AC0037B51749054601F0A2F8044690B101F066
:1040BC00DDF90124134900F0C3FFADF8064001F00F
:1040CC00D7FA02220DF10601002000F045F901207B
:1040DC0003B030BD0C49284601F089F868B101F0F5
:1040EC00C5F90A4900F0ACFFADF8064001F0C0FA82
:1040FC0002220DF106012046E7E74FF0FF30E7E71B
:10410C00E1570B00D4570B00F3570B00E6570B008D
:10411C0013B51A49044601F06AF890B101F0A6F9FA
:10412C00174900F08DFF0124ADF8064001F0A0FA0C
:10413C00012002220DF1060100F00EF9012002B05F
:10414C0010BD1049204601F052F830B101F08EF943
:10415C000D4900F075FF0224E6E70C49204601F0FA
:10416C0046F840B101F082F9094900F069FF0323D8
:10417C00ADF80630DAE74FF0FF30E0E703580B00FC
:10418C00F9570B0011580B0007580B0022580B0065
:10419C0018580B0010B5094C01F068F94FF4165182
:1041AC0001F058F9064A0749204600F04EFB20461C
:1041BC00054A0649BDE8104000F047BB2B480B00F0
:1041CC0027580B00AD400B0034580B001D410B0061
:1041DC0038B5046805467CB16368013B63605BB924
:1041EC00236820469B689847A368013BA3601BB9D2
:1041FC0023682046DB689847284638BD30B58BB01D
:10420C0001F036FA002000F09FF8039001F030FA2C
:10421C00012000F099F8184D039904460A2206A8CB
:10422C0000F0D3FF2B78069A14498DF8003004A8BF
:10423C003C2300F001FC05A8FFF7CAFF06A800F01C
:10424C0039FF21460A2206A800F0BFFF2B78069AF8
:10425C000B498DF8003004A83C2300F0EDFB05A8B9
:10426C00FFF7B6FF06A800F025FF4FF4FA600BB07D
:10427C00BDE8304000F0F4B904E703203E580B00D1
:10428C0051580B0038B5134B134D144C00211970B9
:10429C00012000F001F91249284600F056FF28468B
:1042AC00104D114A214601F0F9F91049284600F049
:1042BC004CFF28460E4D0C4A214601F0EFF90D49F2
:1042CC00284600F042FF21462846074ABDE8384000
:1042DC0001F0E4B904E7032008E70320C1500B0008
:1042EC005B580B0028E7032000E703205F580B0006
:1042FC0018E7032063580B0008B5024B1B685B6C76
:10430C00019308BD4802030008B5024B1B689B6C67
:10431C00019308BD4802030008B5024B1B685B689B
:10432C00019308BD1802030008B5024B1B685B69BA
:10433C00019308BD1802030008B5024B1B689B6A69
:10434C00019308BD1802030008B5024B1B68DB6A19
:10435C00019308BD1802030008B5024B1B689B6C47
:10436C00019308BD1802030008B5024B1B685B697A
:10437C00019308BD6402030008B5024B1B689B68DF
:10438C00019308BD6802030008B5024B1B68DB688B
:10439C00019308BD6802030008B5024B1B681B683B
:1043AC00019308BD3C02030008B5024B1B68DB6897
:1043BC00019308BD3C02030008B5024B1B681B6946
:1043CC00019308BD3C02030008B5024B1B685B69F6
:1043DC00019308BD3C02030008B5024B1B689B69A6
:1043EC00019308BD3C02030008B5024B1B68DB6956
:1043FC00019308BD3C02030008B5024B1B689B6A85
:10440C00019308BD3C02030008B5024B1B681B68F6
:10441C00019308BD4C02030008B5024B1B685B6896
:10442C00019308BD4C02030008B5024B1B681B69C5
:10443C00019308BD4C02030008B5024B1B685B6975
:10444C00019308BD4C02030008B5024B1B689B6925
:10445C00019308BD4C02030008B5024B1B68DB69D5
:10446C00019308BD4C02030008B5024B1B681B6A84
:10447C00019308BD4C02030008B5024B1B685B6836
:10448C00019308BD2002030008B5024B1B685B6951
:10449C00019308BD2002030008B5024B1B68DB6AC0
:1044AC00019308BD2002030008B5024B1B68DB6CAE
:1044BC00019308BD2002030008B5024B1B685B6D1D
:1044CC00019308BD2002030008B5034B1B68D3F809
:1044DC008830019308BD00002002030008B5034B8F
:1044EC001B68D3F89430019308BD00002002030030
:1044FC0008B5024B1B685B68019308BD44020300BE
:10450C0008B5024B1B685B69019308BD44020300AC
:10451C0008B5024B1B681B6A019308BD44020300DB
:10452C0008B5024B1B68DB6B019308BD440203000A
:10453C0008B5024B1B685B68019308BD4002030081
:10454C0008B5024B1B689B68019308BD4002030031
:10455C0008B5024B1B68DB68019308BD40020300E1
:10456C0008B5024B1B681B69019308BD4002030090
:10457C0008B5024B1B685B69019308BD4002030040
:10458C0008B5024B1B689B69019308BD40020300F0
:10459C0008B5024B1B68DB69019308BD40020300A0
:1045AC0008B5024B1B681B6A019308BD400203004F
:1045BC0008B5024B1B681B6B019308BD400203003E
:1045CC0008B5024B1B685B6B019308BD40020300EE
:1045DC0008B5024B1B681B6C019308BD400203001D
:1045EC0008B5024B1B685B6C019308BD40020300CD
:1045FC0008B5024B1B681B68019308BD1C02030025
:10460C0008B5024B1B685B68019308BD1C020300D4
:10461C0008B5024B1B689B68019308BD1C02030084
:10462C0008B5024B1B68DB6A019308BD1C02030032
:10463C0008B5024B1B681B6B019308BD1C020300E1
:10464C0008B5024B1B681B6C019308BD1C020300D0
:10465C0008B5024B1B685B6C019308BD1C02030080
:10466C000021FFF711BF10B5836804460BB901F0A8
:10467C001CF8C3689847A3681BB103222146204647
:10468C00984720461021BDE8104001F00CB810B539
:10469C000446006808B1FFF737FE204610BD10B580
:1046AC008368044613B1032201469847204610BD87
:1046BC0013B50B460246D0E900016C4684E80300B2
:1046CC0093E8030082E8030094E8030083E8030006
:1046DC0002B010BD10B5064C002320462360FFF736
:1046EC000BFE2046034A0449BDE8104000F0D6BF3B
:1046FC0038E7032000E703209B460B0000224068AC
:10470C001146FFF72DBF002240681146FFF748BF46
:10471C00002240681146FFF753BF40680022FFF7A4
:10472C0047BF4068002281F00101FFF731BF002331
:10473C0040681A461946FFF723BF002340681A4603
:10474C001946FFF715BF002240681146FFF7F8BE67
:10475C00406800220221FFF7FBBE002340681A4686
:10476C00FFF7E6BE084B10B5282422461846002158
:10477C0000F0BAFF054B04804FF0FF324260042278
:10478C005A60034A1A6010BD44E703203CE703203B
:10479C0070580B0070470020704710B5102104466C
:1047AC0000F081FF204610BD08B5FFF7F6FF08BDED
:1047BC0030B500224FF69C74026084808D888C800A
:1047CC000C68858004600A6030BD10B50446006832
:1047DC00FFF716FF204610BD38B5C468F4B1237836
:1047EC00022B03D104F10C00FFF7EFFF656835B124
:1047FC002846FFF754FF1021284600F054FFA56807
:10480C0035B12846FFF74BFF1021284600F04BFF2F
:10481C0020461421BDE8384000F045BF38BD10B526
:10482C0088B00446684600F090FC694604A800F085
:10483C00AFFC04A8A047044604A800F03BFC684663
:10484C0000F038FC204608B010BD1FB50023CDE9A0
:10485C000201019210241A4669461846ADF802303E
:10486C00ADF80040FFF744FE04B010BD0B680360C8
:10487C004B68436013B15A6801325A60704737B5C0
:10488C00044668460D46FFF7F1FF009B019A236032
:10489C006260002301A801930093FFF799FC35B1E6
:1048AC00281DFFF795FC0821284600F0FCFE204649
:1048BC0003B030BD826810B50AB900F0F6FEBDE851
:1048CC001040C368184708B5006800F11001FFF7E5
:1048DC00F1FF08BD826810B50AB900F0E6FEBDE82C
:1048EC001040C368184708B5006800F11001FFF7C5
:1048FC00F1FF08BD38B500230446036010200D46B7
:10490C00FFF7C1FB28B10123C0E90133024B03605F
:10491C00C5602060204638BDAC580B0038B500236C
:10492C0083608B6804460D462BB102229847EB68D6
:10493C00E360AB68A360204638BD0000F0B589B0D9
:10494C0004686846FFF734FF4FF00203D4E84F2F9A
:10495C00002A03D1C4E8413F0029F7D125D104F145
:10496C000C0569462846FFF723FFBFF35B8F012335
:10497C006370002004F10803BFF35B8F53E8006FF2
:10498C0043E80002002AF9D1BFF35B8F6EB1FFF749
:10499C008BFD78B129463046FFF78CFF3046FFF788
:1049AC007EFE1021304600F07EFE6846FFF70DFFBC
:1049BC0009B0F0BD314602A8FFF7B0FFE068B4F9CA
:1049CC00105008B100F0D0FE06901020ADF81C502D
:1049DC00FFF759FB0546E8B1002787601820FFF761
:1049EC0052FB044688B10146876002A8FFF760FEBF
:1049FC00049BA268A360059B049206A9E268E3608D
:104A0C0004F110000592FFF7D3FE084BEB60084B46
:104A1C002C60AB6006A8FFF7D8FE02A8FFF73FFE9C
:104A2C00002229460348FFF747FDB7E7D3480B00A0
:104A3C00554B0B0073460B002DE9F04F8BB0054620
:104A4C009DF850A00F4690469946FFF759FD07AECA
:104A5C00834638BB4FF62E73059005A93046ADF84A
:104A6C001830FFF7A5FE1420FFF70DFB044648B1E4
:104A7C00022303700123C0E901BB437031460C30A3
:104A8C00FFF796FE2846214640F8044BFFF732FF0D
:104A9C003046FFF79AFE05A8FFF797FE28460BB0A5
:104AAC00BDE8F08F0C2300241420CDE908440793B3
:104ABC00FFF7E9FA014618B1C0E9014404704470EB
:104ACC0004A80391FFF716FF1E4B08930820FFF76D
:104ADC00DAFA044610B103A9FFF7C8FE00965FFA94
:104AEC008AF34A46414638460994FFF711FDB8B996
:104AFC00039B5B7803F0FF0293B94FF69C7305A9F7
:104B0C0003A80592ADF81830FFF718FF05A8FFF7BA
:104B1C005CFE05A80999FFF7B2FE06A8FFF758FB43
:104B2C0003A905A8FFF7A2FE059B069A2B606A60F5
:104B3C00002306A806930593FFF74AFB04A8FFF78A
:104B4C0047FBABE7D14B0B00012AF8B5054603D167
:104B5C000B6803600020F8BD022A10D0032AF9D19B
:104B6C000468002CF6D004F11000FFF72EFE20464E
:104B7C00FFF795FD1821204600F095FDEAE7182077
:104B8C000E68FFF780FA044650B13146FFF7C6FEB7
:104B9C003069B6F9147008B100F0E6FD2061A78207
:104BAC002C60D7E738B5002383608B6804460D462C
:104BBC002BB102229847EB68E360AB68A3602046F8
:104BCC0038BD0000F0B589B004460D4601A8114669
:104BDC00FFF755FEA4B124B21DB1284600F0C4FD68
:104BEC00054601A803A90395ADF81040FFF7A6FEF2
:104BFC0003A8FFF7EAFD02A8FFF7EAFA09B0F0BD37
:104C0C00019D0123D5E84F2F002A03D1C5E8413F70
:104C1C000029F7D1EFD12B73BFF35B8F6B702B1D7A
:104C2C00BFF35B8F53E8006F43E80042002AF9D1D1
:104C3C00BFF35B8F002EDED02046FFF735FC074616
:104C4C0060B105F10C013046FFF744FE3046FFF72A
:104C5C0026FD1021304600F026FDCCE7314603A896
:104C6C00FFF7A0FF2B7B8DF81C301020FFF70BFA01
:104C7C000546D0B187601420FFF705FA044678B1D9
:104C8C008760014603A8FFF713FD059BA268A3608C
:104C9C00069B0592E268E3609DF81C300692237433
:104CAC00064BEB60064B2C60AB6003A8FFF7F7FCE0
:104CBC00002229460348FFF7FFFBC7E7F3480B0028
:104CCC00D54C0B0073460B00012A70B5044603D17A
:104CDC000B680360002070BD022A0CD0032AF9D1A6
:104CEC000468002CF6D02046FFF7D9FC142120468E
:104CFC0000F0D9FCEEE714200E68FFF7C4F9054666
:104D0C0020B13146FFF74EFF337C2B742560E1E771
:104D1C00002240681146FFF743BC00224068114650
:104D2C00FFF74EBC40680022FFF742BC40680022EF
:104D3C0081F00101FFF72CBC002340681A4619468C
:104D4C00FFF71EBC002340681A461946FFF710BC3B
:104D5C00002240681146FFF703BC00224068114650
:104D6C00FFF7EEBB406800220221FFF7F1BB0023E6
:104D7C0040681A46FFF7DCBB024B03225A60024A1A
:104D8C001A6070476CE70320C8580B00704710B5C9
:104D9C001821044600F087FC204610BDF0B5037DB9
:104DAC00062B8DB00E4600F104074FF0000412D014
:104DBC0000F1080515F8011D0A22304600F047F9EC
:104DCC00AF42044419D0002CF4D02E21304600F010
:104DDC003BF90444EEE72F236A4639460A208DF846
:104DEC000040FFF7C1FA684600F0DBFC336802466E
:104DFC00DB68694630469847044620460DB0F0BD46
:104E0C0010B5054B0446112240F8043B002100F07C
:104E1C006BFC204610BD00BF04590B000346074A2B
:104E2C0010B543F8042B01F1100251F8044B43F870
:104E3C00044B9142F9D10A781A7010BD04590B0039
:104E4C0010B59DF8084044EA032343EA024242EAC3
:104E5C00016104234160037510BD000007B5064BCA
:104E6C000360CB7800938B784A780978FFF7E8FFDA
:104E7C0003B05DF804FB00BF04590B00014B024A60
:104E8C001A60704774E7032010590B000023406828
:104E9C001A46FFF74DBB406800220221FFF758BBB2
:104EAC00002240681146FFF74BBB002240681146B8
:104EBC00FFF756BB002340681A461946FFF758BB4C
:104ECC00002340681A461946FFF75ABB4068002178
:104EDC00FFF77EBB40680021FFF782BB40680022D1
:104EEC0081F00101FFF754BB40680022FFF760BB63
:104EFC00002240681146FFF763BB00224068114650
:104F0C00FFF74EBB2DE9F04395B014460D4607460E
:104F1C00FFF776FF00211C220DA8009100F0E4FBA6
:104F2C0040230C9320466B460CAA0021FFF72CFA69
:104F3C00044600284BD1024601216868FFF710FB9C
:104F4C000221804622466868FFF70AFB009E8146D4
:104F5C002146002E3BD0002939D17368022B03D097
:104F6C000A2B11D0F669F4E7B8F1000FFAD0716989
:104F7C0006A8043107ADFFF771FF0FCD3C1D0FC420
:104F8C002B6823704146EDE7B9F1000FEAD0746944
:104F9C00102201A800F0A8FB06238DF8143001ADF7
:104FAC0004F108031834186859682A4603C20833F8
:104FBC00A3421546F7D101A906A807ADFFF72EFFAE
:104FCC000FCD3C1D0FC42B6823704946CAE70098CF
:104FDC00FFF7D2F9384615B0BDE8F083024B034A0F
:104FEC001A6000225A60704778E703201C590B00A6
:104FFC00F8B506460D468F180024BD420CD0336818
:10500C0015F8011B9B6830469847031E01DB1C44B6
:10501C00F3E7002C08BF1C462046F8BD13B5044628
:10502C00084659B1019100F0BCFB23680199DB687B
:10503C000246204602B0BDE81040184702B010BD31
:10504C0008B5FFF7EBFF08BD03689B68184730B540
:10505C008BB00023012A8DF8243098BF0A2209ACAA
:10506C000D46B1FBF2F101FB125303F0FF03092BC8
:10507C0094BF30333733DBB2AA4204F8013DEFD989
:10508C002146FFF7CBFF0BB030BD10B50446FFF740
:10509C0006FB204610BD00000348044A04490023C7
:1050AC00836000F0FBBA00BF80E7032000E7032019
:1050BC0097500B0010B504460068FFF7A1FA204684
:1050CC0010BD10B50446006808B1FFF799FA00232B
:1050DC00C4E90133236010BD38B504460D460068A1
:1050EC000131FFF795FA10B1C4E90005012038BD74
:1050FC0010B50368044623B143688B4201D30120E9
:10510C0010BD2046FFF7E8FF0028F9D0A368002B5C
:10511C00F5D122681370F2E737B50D4611460192AE
:10512C000446FFF7E5FF019A28B92046FFF7C9FFAF
:10513C00204603B030BDA2602946206800F0C6FAB4
:10514C002268A3680021D154F2E7002313B5C0E90B
:10515C00003304468360037341B10846019100F0AB
:10516C0020FB019902462046FFF7D6FF204602B0ED
:10517C0010BD884210B5044605D00B682BB18A6867
:10518C001946FFF7C9FF204610BDFFF79AFFFAE753
:10519C0010B500230446C0E9003383600373FFF7A6
:1051AC00E8FF204610BD13B5044659B108460191DD
:1051BC0000F0F7FA019902462046FFF7ADFF2046B2
:1051CC0002B010BDFFF77DFFF9E71FB504460023C1
:1051DC00C4E90033A3602373084601A900F0A6F9C3
:1051EC0001A92046FFF7DFFF204604B010BD08B52B
:1051FC0082683AB921B10878B0FA80F0400900E031
:10520C00012008BD006809B90078F5E700F0A2FAA2
:10521C00F2E710B50446006818B1FFF7F1F9002366
:10522C00236010BD10B50446FFF7F3FF204610BDF8
:10523C0010B5094B094C02221A600020084BA360E0
:10524C00C4E90000FFF718F92046064A0649BDE8F4
:10525C00104000F023BA00BF9CE7032090E7032026
:10526C000000FFFF00E7032031520B00024B1A68CD
:10527C00024B1A60704700BF98E60320A0E703209A
:10528C0070474174704708B5007CFFF7B5F820EA09
:10529C00E07008BD08B5007CFFF78EF820EAE070DE
:1052AC0008BD08B5007CFFF797F840EAE07008BD30
:1052BC0008B5007CFFF788F840EAE07008BD007C78
:1052CC00FFF792B837B5457C04462DB1207C03B06E
:1052DC00BDE83040FFF768B8007C0191FFF78CF80F
:1052EC0000280199F2DC284603B030BD10B514211A
:1052FC00044600F0D8F9204610BD000010B54FF060
:10530C00000C0446084611464FF47A72C4E901C2F7
:10531C00044A22600122207462741A46FFF73CF89A
:10532C00204610BD74590B00F7B51B4D2E684EB9B5
:10533C008420FEF7A8FE044618B18422314600F002
:10534C00D3F92C60154E37684FB98420FEF79BFEBD
:10535C00044618B18422394600F0C6F93460104C6A
:10536C002178BFF35B8F11F0010112D1204601911E
:10537C00FEF78DFE019960B12A6833680948FFF782
:10538C00BDFF2046FEF788FE074A0849054800F095
:10539C0085F9044803B0F0BDA8E70320ACE703206F
:1053AC00A4E70320B0E7032000E703208D520B0095
:1053BC0041747047704708B50021007CFFF744F832
:1053CC0040EAE07008BD08B50121007CFFF73CF80D
:1053DC0040EAE07008BD08B5007CFFF72DF820EA24
:1053EC00E07008BD08B5007CFFF71EF820EAE070FD
:1053FC0008BD13B50446007C0191FFF71DF8002889
:10540C00019901DC607C20B1207CFFF725F820EAB3
:10541C00E07002B010BD007CFFF726B810B5142167
:10542C00044600F040F9204610BD000010B54FF4C2
:10543C007A73044608460021C4E90113044B236027
:10544C000123207463741146FEF7DEFF204610BD65
:10545C00A4590B00007C0022FEF7DEBF10B514220D
:10546C000446002100F040F9204610BD10B5104C48
:10547C0088B003A8FFF7F2FF2178BFF35B8F11F020
:10548C00010111D120460191FEF701FE019958B19D
:10549C0003AA0848FFF7CAFF2046FEF7FDFD064A9F
:1054AC000649044800F0FAF8024808B010BD00BFE5
:1054BC00C4E70320C8E7032000E70320C1530B0017
:1054CC0010B5044600F06DF90138231820468342CC
:1054DC0006D90278197800F8011B03F80129F6E7C0
:1054EC0010BD70B50C46911E22291DD8254630B929
:1054FC00234430229D4210D205F8012BFAE7B0FB71
:10550C00F2F602FB1600C1B2092894BF30315731B4
:10551C00C9B205F8011B3046E9E7002320462B7081
:10552C00FFF7CEFF204670BD0020FCE708B5012335
:10553C00FFF7D7FF08BD0000014B1860704700BF94
:10554C009CE6032008B50B4B43B1FFF78FFF0368B4
:10555C001B699847002801DDAFF30080064B43B16F
:10556C00FFF7E2FE03681B699847002801DDAFF3E3
:10557C00008008BD000000000000000008B5FFF727
:10558C00E1FFFEF7D1FE014B186008BDE4E70320F4
:10559C000548064A064908B5121A00F097F8054B5B
:1055AC00054A1A6008BD00BF00F4032004F4032070
:1055BC00605A0B0000F403201E1C279A07B5002329
:1055CC0000931A466FF07701FEF788FF03B05DF881
:1055DC0004FB000007B543880A2B08D0502B0BD1D5
:1055EC00094B1B684BB103B05DF804EB1847FFF790
:1055FC00E5FF03B05DF804FB002300931A466FF03F
:10560C007701FEF76BFFF4E7E0E7032010B51248D3
:10561C000021FFF71DF8114B1A68114B9A42114BE0
:10562C000CBF012200221A7001D0FFF7B1FFFEF768
:10563C0073FE044600F060F80B4B13B12046AFF339
:10564C00008000210848FEF76BFFBDE810400748BA
:10565C000021FEF739BF00BF45550B0000F40320B5
:10566C001E1C279ADCE7032000000000E1550B000C
:10567C0010B5084C2378BFF35B8FDB0708D42046AA
:10568C00FEF705FD20B1FEF757FE2046FEF704FDA0
:10569C00014810BDE8E70320ECE703200B46014668
:1056AC00184600F005B8FEF7F0BC08B5FEF7B8FFD9
:1056BC0010B5054C13462CB10A4601460220AFF337
:1056CC00008010BD2046FCE7000000000A44914217
:1056DC0000F1FF3300D1704710B511F8014B03F8FE
:1056EC00014F9142F9D110BD02440346934200D1BF
:1056FC00704703F8011BF9E738B5104B1D68AB6B0D
:10570C000446B3B91820FEF773FF0246A86320B90C
:10571C000B4B0C484221FEF793FF0B490B4BC0E996
:10572C0000130B4B83600B23838100210120C2E902
:10573C000401AB6B00221C615A6138BD9CE603204E
:10574C00CC590B00E3590B000E33CDAB34126DE684
:10575C00ECDE050010F8012B11F8013B012A28BFE3
:10576C009A42F7D0D01A7047024B0146186800F0E5
:10577C0003B800BF9CE6032037B5044608460D4627
:10578C0000F00FF8421C114620460192FEF750FF24
:10579C00044618B1019A2946FFF798FF204603B03A
:1057AC0030BD034613F8012B002AFBD1181A01381F
:1057BC00704700001D400B0059400B0081400B004E
:1057CC0085400B000000000066616E206F766572EC
:1057DC007269646520747275650066616E206F76FF
:1057EC006572726964652066616C73650066616ED2
:1057FC00207370656564206C6F770066616E207332
:10580C0070656564206D656469756D0066616E20F8
:10581C00737065656420686967680046616E204F27
:10582C0076657272696465005365742053706565A2
:10583C00640046616E204F76657272696465205310
:10584C00746174650046616E205370656564003048
:10585C0032380030313500303130000000000000AB
:10586C000000000067470B005D470B0053470B001F
:10587C0009470B0047470B003B470B00D94E0B0069
:10588C00E14E0B002F470B0027470B001D470B0069
:10589C0013470B00114F0B0000000000000000002C
:1058AC00A1470B00A7470B00E5470B00B5470B00C2
:1058BC00A3470B0000000000000000007B4D0B0014
:1058CC00714D0B00674D0B005D4D0B00514D0B00E6
:1058DC00454D0B00D94E0B00E14E0B00394D0B0022
:1058EC00314D0B00274D0B001D4D0B00114F0B00C4
:1058FC000000000000000000A94D0B00994D0B00AA
:10590C009B4D0B0061707000000000000000000057
:10591C00994E0B00A34E0B00AD4E0B00B74E0B0077
:10592C00C14E0B00CD4E0B00D94E0B00E14E0B00BF
:10593C00E94E0B00F54E0B00FD4E0B00074F0B0014
:10594C00114F0B0025592D256D2D25645425483AF2
:10595C00254D3A2553257A0061736374696D650092
:10596C0000000000000000008D520B00F9520B00EB
:10597C00D1520B00FD4F0B00A1520B00BD520B007E
:10598C00AF520B00CB520B008F520B0093520B00FB
:10599C000000000000000000C1530B0029540B0054
:1059AC00FF530B00FD4F0B00F1530B00C3530B00C7
:1059BC00D3530B0023540B00E3530B00BD530B00CC
:1059CC005245454E54206D616C6C6F63207375634A
:1059DC00636565646564002F746D702F6A656E6B0A
:1059EC00696E732D4743432D31302D706970656C92
:1059FC00696E652D34385F32303230313132345F7C
:105A0C00313630363138303633392F7372632F6E6E
:105A1C0065776C69622F6E65776C69622F6C696251
:105A2C00632F7374646C69622F72616E642E6300F1
:105A3C0091420B00E1460B0071470B00854D0B00AA
:105A4C00894E0B00E94F0B00A5500B003D520B008B
:045A5C0079520B0070
:045A60000000000042
:105A640064590B00A0E603200000000000000000C1
:105A74000000000000000000000000000000000022
:105A84000000000000000000000000000000000012
:105A94000000000000000000000000000000000002
:105AA40000000000000000000000000000000000F2
:105AB40000000000000000000000000000000000E2
:085AC4000000000000000000DA
:105ACC00FFFFFFFF00000102030405060708090A97
:105ADC000B0C0D0E0F101112131415161718191A92
:085AEC001B1C1D1E1F202800D9
:045AF400785634129A
:04000003B000401CED
:00000001FF
