:02000002D0002C
:1040000000400D00F85D0D00000006000D000501E8
:08401000040135080000000066
:04401800185B0D0024
:10401C0009480A49884208B505D0094A824202D0AB
:10402C00121A01F009FD0748074A0021121A01F083
:10403C0011FD014808BD00BF98E60320645D0D002A
:10404C0004E7032004E70320F0E7032070B5074ED4
:10405C00074C01F0EBFBA41BA4080025A54200D1E2
:10406C0070BD56F8043B98470135F7E7385D0D00F5
:10407C005C5D0D0000F022B808B500F053F8BDE807
:10408C00084001F095BB00F067BB00F065BB00F089
:10409C006BBB0078B0FA80F04009704701230370C5
:1040AC00704737B59DF818501D438DF800503C23D0
:1040BC00044600F06FFD204603B030BD08B501F09A
:1040CC00E9FA4FF4165101F0D9FA0221084601F031
:1040DC001DFC054B0549064801221A70BDE8084035
:1040EC00044A00F053BC00BF18E7032019420D002E
:1040FC006D490D002C5B0D0038B5046805467CB18C
:10410C006368013B63605BB9236820469B689847F2
:10411C00A368013BA3601BB923682046DB68984762
:10412C00284638BD7FB52C4E2C4D33682B600220B1
:10413C0001F0FDFB0446B0FA80F0400930602E68B7
:10414C00274DC6B92CBB274E337813B301F0A2FA16
:10415C00254901F072F8254B8DF800401B78244A54
:10416C00244902A8FFF79DFF03A8FFF7C5FF2C7099
:10417C00347004B070BD012E0BD154B101F08AFA29
:10418C001D4901F05AF82E7000F01AF91B4B1860FB
:10419C00EFE72B78002BECD000F012F9174B1B68D3
:1041AC00C01A174B9842E4D901F074FA154901F082
:1041BC0044F800240D4B8DF800401B78124A0D4931
:1041CC0002A8FFF76EFF03A8FFF796FF054B2C70B4
:1041DC0001221A70CDE700BF10E7032014E703207B
:1041EC0098E6032018E70320335B0D0008E7032053
:1041FC00935B0D00445B0D00465B0D000CE7032048
:10420C001FBF0200565B0D00715B0D002DE9F043E2
:10421C0053498BB001F0F6F8002800F09E8001F0B5
:10422C0097F94FF4165101F08FF901F091F90368E9
:10423C004C49DB684C4C0122984742F2107000F05C
:10424C00BBFA102001F086FB03900F2001F082FBDB
:10425C0081460E2001F07EFB8046132001F07AFB94
:10426C000746122001F076FB0025039906460A2228
:10427C0006A801F0B4F82378069A3C498DF8005052
:10428C0004A8FFF70EFF05A8FFF736FF06A801F0FC
:10429C001BF84FF4FA7000F08FFA0A22494606A870
:1042AC0001F09DF82378069A31498DF8005004A846
:1042BC00FFF7F7FE05A8FFF71FFF06A801F004F8AB
:1042CC004FF4FA7000F078FA0A22414606A801F081
:1042DC0086F82378069A27498DF8005004A8FFF732
:1042EC00E0FE05A8FFF708FF06A800F0EDFF4FF46D
:1042FC00FA7000F061FA0A22394606A801F06FF84C
:10430C002378069A1C498DF8005004A8FFF7C9FEC3
:10431C0005A8FFF7F1FE06A800F0D6FF4FF4FA70DF
:10432C0000F04AFA0A22314606A801F058F8237820
:10433C00069A12498DF8005004A8FFF7B2FE05A8A2
:10434C00FFF7DAFE06A800F0BFFF4FF4FA7000F09A
:10435C0033FA01200BB0BDE8F0834FF0FF30F9E7E2
:10436C002C5B0D00735B0D0008E70320755B0D00E3
:10437C007F5B0D00895B0D00955B0D00A15B0D0053
:10438C00024B01201870002100F03AB908E7032015
:10439C0008B5024B1B685B6C019308BD4802030017
:1043AC0008B5024B1B689B6C019308BD48020300C7
:1043BC0008B5024B1B685B68019308BD180203002B
:1043CC0008B5024B1B685B69019308BD180203001A
:1043DC0008B5024B1B685B68019308BD2C020300F7
:1043EC0008B5024B1B689B68019308BD2C020300A7
:1043FC0008B5024B1B68DB68019308BD2C02030057
:10440C0008B5024B1B685B69019308BD2C020300C5
:10441C0008B5024B1B681B6B019308BD2C020300F3
:10442C0008B5024B1B681B6A019308BD28020300E8
:10443C0008B5024B1B685B6A019308BD2802030098
:10444C0008B5024B1B689B6A019308BD2802030048
:10445C0008B5024B1B68DB6A019308BD28020300F8
:10446C0008B5024B1B681B6B019308BD28020300A7
:10447C0008B5024B1B685B6B019308BD2802030057
:10448C0008B5024B1B681B6C019308BD2802030086
:10449C0008B5024B1B685B69019308BD64020300FD
:1044AC0008B5024B1B689B68019308BD68020300AA
:1044BC0008B5024B1B68DB68019308BD680203005A
:1044CC0008B5024B1B68DB69019308BD3002030081
:1044DC0008B5024B1B681B6A019308BD3002030030
:1044EC0008B5024B1B681B68019308BD3C02030016
:1044FC0008B5024B1B68DB68019308BD3C02030046
:10450C0008B5024B1B681B69019308BD3C020300F4
:10451C0008B5024B1B685B69019308BD3C020300A4
:10452C0008B5024B1B689B69019308BD3C02030054
:10453C0008B5024B1B68DB69019308BD3C02030004
:10454C0008B5024B1B681B6A019308BD3C020300B3
:10455C0008B5024B1B689B6A019308BD3C02030023
:10456C0008B5024B1B68DB6A019308BD3C020300D3
:10457C0008B5024B1B681B68019308BD4C02030075
:10458C0008B5024B1B685B68019308BD4C02030025
:10459C0008B5024B1B681B69019308BD4C02030054
:1045AC0008B5024B1B685B69019308BD4C02030004
:1045BC0008B5024B1B689B69019308BD4C020300B4
:1045CC0008B5024B1B68DB69019308BD4C02030064
:1045DC0008B5024B1B681B6A019308BD4C02030013
:1045EC0008B5024B1B685B68019308BD20020300F1
:1045FC0008B5024B1B685B69019308BD20020300E0
:10460C0008B5024B1B68DB6A019308BD200203004E
:10461C0008B5024B1B68DB6C019308BD200203003C
:10462C0008B5024B1B685B6D019308BD20020300AB
:10463C0008B5034B1B68D3F88830019308BD000004
:10464C002002030008B5034B1B68D3F89430019388
:10465C0008BD00002002030008B5024B1B685B6814
:10466C00019308BD4402030008B5024B1B685B694B
:10467C00019308BD4402030008B5024B1B681B6A7A
:10468C00019308BD4402030008B5024B1B68DB6BA9
:10469C00019308BD4402030008B5024B1B685B681C
:1046AC00019308BD4002030008B5024B1B689B68D0
:1046BC00019308BD4002030008B5024B1B68DB6880
:1046CC00019308BD4002030008B5024B1B681B692F
:1046DC00019308BD4002030008B5024B1B685B69DF
:1046EC00019308BD4002030008B5024B1B689B698F
:1046FC00019308BD4002030008B5024B1B68DB693F
:10470C00019308BD4002030008B5024B1B681B6AED
:10471C00019308BD4002030008B5024B1B681B6BDC
:10472C00019308BD4002030008B5024B1B685B6B8C
:10473C00019308BD4002030008B5024B1B681B6CBB
:10474C00019308BD4002030008B5024B1B685B6C6B
:10475C00019308BD4002030008B5024B1B681B689F
:10476C00019308BD1C02030008B5024B1B685B6873
:10477C00019308BD1C02030008B5024B1B689B6823
:10478C00019308BD1C02030008B5024B1B68DB6AD1
:10479C00019308BD1C02030008B5024B1B681B6B80
:1047AC00019308BD1C02030008B5024B1B685B6C2F
:1047BC00019308BD1C0203000021FFF719BF10B5BF
:1047CC00836804460BB901F026F9C3689847A368BF
:1047DC001BB1032221462046984720461021BDE8F4
:1047EC00104001F014B910B50446006808B1FFF789
:1047FC00D7FD204610BD0B68036013B15A68013217
:10480C005A60704710B5064C002320462360FFF712
:10481C00BFFD2046034A0449BDE8104001F0F2B840
:10482C001CE7032004E70320F3470D000022406837
:10483C001146FFF749BF002240681146FFF764BFDD
:10484C00002240681146FFF76FBF40680022FFF757
:10485C0063BF4068002281F00101FFF74DBF0023C8
:10486C0040681A461946FFF73FBF002340681A46B6
:10487C001946FFF731BF002240681146FFF714BFFD
:10488C00406800220221FFF717BF002340681A4638
:10489C00FFF702BF084B10B528242246184600210A
:1048AC0001F0D8F8054B04804FF0FF32426004222F
:1048BC005A60034A1A6010BD28E7032020E7032042
:1048CC00B05B0D0070470020704710B510210446F6
:1048DC0001F09DF8204610BD08B5FFF7F6FF08BDA6
:1048EC0010B58368044613B103220146984720464D
:1048FC0010BD30B500224FF69C74026084808D8808
:10490C008C800C68858004600A6030BD10B504464C
:10491C000068FFF729FF204610BD38B5C468F4B114
:10492C002378022B03D104F10C00FFF7EFFF65682D
:10493C0035B12846FFF7D4FF1021284601F067F85F
:10494C00A56835B12846FFF7CBFF1021284601F0AA
:10495C005EF820461421BDE8384001F058B838BD47
:10496C0010B588B00446684600F0F9FC694604A806
:10497C0000F018FD04A8A047044604A800F0A4FC0D
:10498C00684600F0A1FC204608B010BD1FB50023FE
:10499C00CDE90201019210241A4669461846ADF879
:1049AC000230ADF80040FFF757FE04B010BD73B5F0
:1049BC000E46044656F8043B00930D4601A83146BA
:1049CC00FFF719FF019A009B6260236001A8002386
:1049DC0001930093FFF790FB3046FFF78DFB2846C1
:1049EC00082101F014F8204602B070BD13B50B4637
:1049FC000246D0E900016C4684E8030093E803000A
:104A0C0082E8030094E8030083E8030002B010BDC1
:104A1C00826810B50AB900F0FEFFBDE81040C3680B
:104A2C00184708B5006800F11001FFF7F1FF08BD49
:104A3C00826810B50AB900F0EEFFBDE81040C368FB
:104A4C00184708B5006800F11001FFF7F1FF08BD29
:104A5C0038B500230446036010200D46FFF713FB06
:104A6C0028B10123C0E90133024B0360C56020600B
:104A7C00204638BDEC5B0D0038B5002383608B6895
:104A8C0004460D462BB102229847EB68E360AB68F5
:104A9C00A360204638BD0000F0B589B004686846B4
:104AAC00FFF727FF4FF00203D4E84F2F002A03D162
:104ABC00C4E8413F0029F7D125D104F10C05694622
:104ACC002846FFF716FFBFF35B8F012363700020AE
:104ADC0004F10803BFF35B8F53E8006F43E8000257
:104AEC00002AF9D1BFF35B8F6EB1FFF791FD78B15E
:104AFC0029463046FFF78CFF3046FFF7F1FE1021B8
:104B0C00304600F084FF6846FFF700FF09B0F0BDA7
:104B1C00314602A8FFF7B0FFE068B4F9105008B1B5
:104B2C0000F0CEFF06901020ADF81C50FFF7ABFA4A
:104B3C000546E8B1002787601820FFF7A4FA044661
:104B4C0088B10146876002A8FFF750FF049BA2685A
:104B5C00A360059B049206A9E268E36004F11000CF
:104B6C000592FFF7C6FE084BEB60084B2C60AB6060
:104B7C0006A8FFF7CBFE02A8FFF7B2FE00222946DB
:104B8C000348FFF74DFDB7E72F4A0D00C54C0D004C
:104B9C00CB470D002DE9F0478AB005469DF84890AB
:104BAC000C4617469846FFF75FFD07AE824638BBAA
:104BBC004FF62E73059005A93046ADF81830FFF767
:104BCC0098FE1420FFF75FFA044648B102230370E5
:104BDC000123C0E901AA437031460C30FFF789FE6E
:104BEC002846214640F8044BFFF732FF3046FFF7CA
:104BFC008DFE05A8FFF78AFE28460AB0BDE8F087AF
:104C0C000C234FF0000A1420CDE908AA0793FFF7F4
:104C1C003AFA014628B1C0E901AA80F800A080F850
:104C2C0001A004A80391FFF713FF224B089308205F
:104C3C00FFF729FA824628B1039B40F8043B04A9EC
:104C4C00FFF7D9FD00965FFA89F3424639462046B4
:104C5C00CDF824A0FFF710FDB8B9039B5B7803F0E7
:104C6C00FF0293B94FF69C7305A903A80592ADF802
:104C7C001830FFF711FF05A8FFF748FE05A80999A2
:104C8C00FFF795FE06A8FFF737FA039B059304A9D7
:104C9C0006A8FFF7B0FD059B069A2B606A600023FF
:104CAC0006A806930593FFF727FA04A8FFF724FA42
:104CBC00A2E700BF894D0D00022AF8B5054607D0C2
:104CCC00032A18D0012A01D10B6803600020F8BD1B
:104CDC0018200E68FFF7D7F9044650B13146FFF79C
:104CEC00CBFE3069B6F9147008B100F0E9FE206112
:104CFC00A7822C60EAE70468002CE7D004F11000CE
:104D0C00FFF704FE2046FFF7EBFD1821204600F0CC
:104D1C007EFEDBE738B5002383608B6804460D46C6
:104D2C002BB102229847EB68E360AB68A360204686
:104D3C0038BD022A70B5044607D0032A12D0012AC6
:104D4C0001D10B680360002070BD14200E68FFF7C2
:104D5C009AF9054620B13146FFF7DCFF337C2B7402
:104D6C002560F0E70468002CEDD02046FFF7B8FD75
:104D7C001421204600F04BFEE5E70000F0B589B0A9
:104D8C0004460D4601A81146FFF711FEA4B124B24A
:104D9C001DB1284600F094FE054601A803A9039511
:104DAC00ADF81040FFF778FE03A8FFF7AFFD02A89F
:104DBC00FFF7A2F909B0F0BD019D0123D5E84F2FF3
:104DCC00002A03D1C5E8413F0029F7D1EFD12B735D
:104DDC00BFF35B8F6B702B1DBFF35B8F53E8006FC2
:104DEC0043E80042002AF9D1BFF35B8F002EDED0DE
:104DFC002046FFF70DFC074660B105F10C0130466B
:104E0C00FFF716FE3046FFF76BFD1021304600F021
:104E1C00FEFDCCE7314603A8FFF77CFF2B7B8DF81A
:104E2C001C301020FFF72FF90546D0B187601420F5
:104E3C00FFF729F9044678B18760014603A8FFF70C
:104E4C00D5FD059BA268A360069B0592E268E36012
:104E5C009DF81C3006922374064BEB60064B2C60BD
:104E6C00AB6003A8FFF73CFD002229460348FFF77F
:104E7C00D7FBC7E74F4A0D003F4D0D00CB470D0048
:104E8C00002240681146FFF73FBC002240681146E3
:104E9C00FFF74ABC40680022FFF73EBC4068002286
:104EAC0081F00101FFF728BC002340681A4619461F
:104EBC00FFF71ABC002340681A461946FFF70CBCD2
:104ECC00002240681146FFF7FFBB002240681146E4
:104EDC00FFF7EABB406800220221FFF7EDBB00237D
:104EEC0040681A46FFF7D8BB024B03225A60024AAD
:104EFC001A60704750E70320085C0D007047F8B546
:104F0C00064615460C468F18BC4206D0336814F87A
:104F1C00011B9B6830469847F6E72846F8BD007C95
:104F2C000022FFF77DBA007C0021FFF781BA007CDC
:104F3C000021FFF785BA007C0021FFF789BA007CBD
:104F4C000021FFF78DBA10B51421044600F05FFD67
:104F5C00204610BD10B54FF47A7304460846002164
:104F6C00C4E90113034B236020741146FFF788FA40
:104F7C00204610BD445C0D00704710B51821044646
:104F8C0000F045FD204610BDF0B5037D062B8DB01D
:104F9C000E4600F104074FF0000412D000F1080592
:104FAC0015F8011D0A22304600F051F9AF420444B5
:104FBC0019D0002CF4D02E21304600F02FF90444E7
:104FCC00EEE72F236A4639460A208DF80040FFF79A
:104FDC005FFA684600F091FD33680246DB6869466B
:104FEC0030469847044620460DB0F0BD10B5054B31
:104FFC000446112240F8043B002100F02BFD204612
:10500C0010BD00BF6C5C0D000346074A10B543F899
:10501C00042B01F1100251F8044B43F8044B91425C
:10502C00F9D10A781A7010BD6C5C0D0010B59DF8A2
:10503C00084044EA032343EA024242EA01610423A2
:10504C004160037510BD13B5CB7800938B784A780B
:10505C000978FFF7EBFF02B010BD0000014B024ACC
:10506C001A60704758E70320785C0D0000234068F5
:10507C001A46FFF711BB406800220221FFF71CBB48
:10508C00002240681146FFF70FBB00224068114612
:10509C00FFF71ABB002340681A461946FFF71CBBE2
:1050AC00002340681A461946FFF71EBB40680021D2
:1050BC00FFF742BB40680021FFF746BB4068002267
:1050CC0081F00101FFF718BB40680022FFF724BBF9
:1050DC00002240681146FFF727BB002240681146AA
:1050EC00FFF712BB2DE9F043002495B016460D4690
:1050FC000746FFF77BFF214618220EA8009400F00C
:10510C00A9FC4023CDE90C3421466B460CAA304651
:10511C00FFF7CEF90446002846D102460121686803
:10512C00FFF7D2FA0221804622466868FFF7CCFAD4
:10513C00009E81462146002E36D0002934D173685A
:10514C00022B03D00A2B0BD0F669F4E7B8F1000F51
:10515C0004D0716938460431FFF775FF4146F3E717
:10516C00B9F1000F01D14946EEE77469102201A88C
:10517C0000F070FC06238DF8143001AD04F1080327
:10518C001834186859682A4603C20833A3421546D6
:10519C00F7D101A906A807ADFFF736FF0FCD3C1DCF
:1051AC000FC42B682370DEE70098FFF779F93846B7
:1051BC0015B0BDE8F0830000024B034A1A600022D0
:1051CC005A6070475CE70320845C0D00F8B5064616
:1051DC000D468F180024BD420CD0336815F8011B06
:1051EC009B6830469847031E01DB1C44F3E7002CF8
:1051FC0008BF1C462046F8BD13B50446084659B1F5
:10520C00019100F07AFC23680199DB680246204684
:10521C0002B0BDE81040184702B010BD03689B688F
:10522C00184738B50D210546FFF7F8FF0A2104464B
:10523C002846FFF7F3FF204438BD38B50546FFF785
:10524C00DBFF04462846FFF7ECFF204438BD30B5A1
:10525C008BB000238DF82430012A98BF0A2209ACA8
:10526C000D46B1FBF2F101FB125303F0FF03092BC6
:10527C0094BF30333733DBB2AA4204F8013DEFD987
:10528C002146FFF7B9FF0BB030BD10B50446FFF750
:10529C0027FB204610BD00000348044A04490023A4
:1052AC00836000F0AFBB00BF64E7032004E703207A
:1052BC0097520D0010B5044608462170FFF700F90F
:1052CC0000236360204610BD10B504460068FFF74C
:1052DC004BFA204610BD10B50446006808B1FFF724
:1052EC0043FA0023C4E90133236010BD38B50446EA
:1052FC000D4600680131FFF73FFA10B1C4E9000513
:10530C00012038BD10B50368044623B143688B42B5
:10531C0001D3012010BD2046FFF7E8FF0028F9D08B
:10532C00A368002BF5D122681370F2E737B50D4650
:10533C00114601920446FFF7E5FF019A28B9204671
:10534C00FFF7C9FF204603B030BDA2602946206894
:10535C0000F072FB2268A3680021D154F2E700230D
:10536C0013B5C0E9003304468360037341B10846AA
:10537C00019100F0C2FB019902462046FFF7D6FFCF
:10538C00204602B010BD884210B5044605D00B680B
:10539C002BB18A681946FFF7C9FF204610BDFFF7ED
:1053AC009AFFFAE710B500230446C0E90033836086
:1053BC000373FFF7E8FF204610BD13B5044659B13F
:1053CC000846019100F099FB019902462046FFF72F
:1053DC00ADFF204602B010BDFFF77DFFF9E710B519
:1053EC0004468AB00023C4E90033A3602373084643
:1053FC0001A900F0B5F901A92046FFF7DEFF204610
:10540C000AB010BD08B582683AB921B10878B0FA73
:10541C0080F0400900E0012008BD006809B900785F
:10542C00F5E700F043FBF2E710B50446006818B14D
:10543C00FFF79AF90023236010BD10B50446FFF75F
:10544C00F3FF204610BD000010B5094B094C022299
:10545C0000201A60084B2060A080A071A360FFF7A9
:10546C00BFF82046054A0649BDE8104000F0CABA0C
:10547C0080E7032074E703200000FFFF04E703200C
:10548C0047540D00024B1A68024B1A60704700BF5C
:10549C009CE6032084E7032070474174704708B5ED
:1054AC00007CFFF755F820EAE07008BD08B5007CD9
:1054BC00FFF726F820EAE07008BD08B5007CFFF77E
:1054CC002FF840EAE07008BD08B5007CFFF720F823
:1054DC0040EAE07008BD007CFFF72AB837B5457C80
:1054EC0004462DB1207C03B0BDE83040FFF700B876
:1054FC00007C0191FFF72CF800280199F2DC28467A
:10550C0003B030BD10B51421044600F080FA2046DB
:10551C0010BD000010B54FF0000C044608461146B3
:10552C004FF47A72C4E901C2044A22600122207449
:10553C0062741A46FEF7D4FF204610BDDC5C0D00E9
:10554C00007C0023FFF70CB80022FFF7F9BF000026
:10555C00F7B51B4C26684EB98420FEF794FD054622
:10556C0018B18422314600F075FA2560154D2F686C
:10557C004FB98420FEF787FD064618B184223946C0
:10558C0000F068FA2E60104E3178BFF35B8F11F08B
:10559C00010112D130460191FEF77BFD019960B1FA
:1055AC0022682B680948FFF7B5FF3046FEF776FDF9
:1055BC00074A0849054800F025FA044803B0F0BD35
:1055CC008CE7032090E7032088E7032094E703206F
:1055DC0004E70320A5540D0041747047704708B5CB
:1055EC000021007CFEF7E4FF40EAE07008BD08B53E
:1055FC000121007CFEF7DCFF40EAE07008BD08B535
:10560C00007CFEF7CDFF20EAE07008BD08B5007CF9
:10561C00FEF7BEFF20EAE07008BD13B50446007C1F
:10562C000191FEF7BDFF0028019901DC607C20B1DF
:10563C00207CFEF7C5FF20EAE07002B010BD007CB4
:10564C00FEF7C6BF10B51421044600F0E0F9204661
:10565C0010BD000010B54FF47A73044608460021C3
:10566C00C4E90113044B23600123207463741146B5
:10567C00FEF77EFF204610BD0C5D0D00007C002265
:10568C00FEF77EBF10B514220446002100F0E2F9AB
:10569C00204610BD10B5104C88B003A8FFF7F2FFE0
:1056AC002178BFF35B8F11F0010111D120460191DC
:1056BC00FEF7EFFC019958B103AA0848FFF7CAFF9F
:1056CC002046FEF7EBFC064A0649044800F09AF91E
:1056DC00024808B010BD00BFA8E70320ACE70320C8
:1056EC0004E70320E9550D0010B5044600F005FA57
:1056FC00013823182046834206D90278197800F81D
:10570C00011B03F80129F6E710BD70B50C46911E7C
:10571C002229054622D820466DB1B5FBF2F602FBD4
:10572C001655E9B2092D94BF30315731C9B200F882
:10573C00011B3546F0E7024623443021934202D93F
:10574C0002F8011BFAE71A1A834238BF0022002321
:10575C0083542046FFF7C8FF204670BD0020FCE7AD
:10576C0008B50123FFF7D1FF08BD0000014B1860FD
:10577C00704700BFA0E6032008B50B4B43B1FFF701
:10578C0089FF03681B699847002801DDAFF300808F
:10579C00064B43B1FFF7DCFE03681B6998470028F2
:1057AC0001DDAFF3008008BD000000000000000028
:1057BC0008B5FFF7E1FFFEF703FE014B186008BDCB
:1057CC00D4E703200248034A0349121A00F034B903
:1057DC0000F4032004F40320605D0D0007B50023E2
:1057EC0000931A466FF07701FEF72CFF03B05DF8BB
:1057FC0004FB000007B543880A2B08D0502B0BD1B3
:10580C00094B1B684BB103B05DF804EB1847FFF76D
:10581C00E5FF03B05DF804FB002300931A466FF01C
:10582C007701FEF70FFFF4E7C4E7032038B5124CFD
:10583C001248134D0021FEF7B7FF2368AB42114B02
:10584C000CBF012200221A7002D0FFF7BBFF2560AB
:10585C00FEF7AEFD044600F005F90B4B13B12046E4
:10586C00AFF3008000210848FEF70EFFBDE838407A
:10587C0006480021FEF7DCBE00F4032079570D002A
:10588C001E1C279AC0E703200000000001580D00E1
:10589C00232813B502D9002002B010BDA0F10B03D0
:1058AC00022B1AD8174C2178BFF35B8F11F0010132
:1058BC000BD120460191FEF7ECFB019928B112485F
:1058CC00FFF7F8FC2046FEF7E9FB0F4B1878FEF7C4
:1058DC00FFFD0028DFD10120DEE7012809D800F008
:1058EC0069F80021007CFEF7C3FD80F00100C0B216
:1058FC00D2E709380128EED8FFF72AFE007CFEF724
:10590C001FFEF2E7C8E70320CCE70320232838B5B5
:10591C0004460D460AD8FF2908D0FFF7B9FF28B175
:10592C0029462046BDE83840FEF75ABD38BD10B5B3
:10593C000446FEF75DFD031FDBB2012B08D92046A0
:10594C00FFF7A6FF20B12046BDE81040FEF758BD7A
:10595C00002010BD0D2810B504469CBF0E34A4B217
:10596C002046FFF795FF50B103212046FEF730FD8E
:10597C00032804D12046BDE81040FEF749BD0020A5
:10598C0010BD000038B500232025438014230446A5
:10599C000380856005610649284600F03AF8044901
:1059AC006060284600F035F8E060204638BD00BF46
:1059BC00345D0D0030B50F4D2978BFF35B8F11F0BE
:1059CC00010487B013D12846FEF763FB78B101A818
:1059DC00FFF7D8FF01AA21460748FFF7BBFA284674
:1059EC00FEF75CFB054A0649034800F00BF8024839
:1059FC0007B030BDD8E70320DCE7032004E7032021
:105A0C00094F0D000B460146184600F007B8FEF78B
:105A1C003EBBFEF73ABB08B5FEF7B6FE10B5054C1B
:105A2C0013462CB10A4601460220AFF3008010BD8C
:105A3C002046FCE7000000000A44914200F1FF33CD
:105A4C0000D1704710B511F8014B03F8014F91428A
:105A5C00F9D110BD02440346934200D1704703F8BC
:105A6C00011BF9E738B50D4B1D68AB6B04467BB9D0
:105A7C001820FEF771FE0A4A0A4BA863C0E90023FE
:105A8C00094B83600B23838101220023C0E904238B
:105A9C00AB6B00221C615A6138BD00BFA0E603202D
:105AAC000E33CDAB34126DE6ECDE050010F8012B95
:105ABC0011F8013B012A28BF9A42F7D0D01A70473F
:105ACC00024B0146186800F003B800BFA0E60320A3
:105ADC0037B5044608460D4600F00FF8421C114637
:105AEC0020460192FEF758FE044618B1019A294649
:105AFC00FFF7A2FF204603B030BD034613F8012B7D
:105B0C00002AFBD1181A0138704700001D400D0007
:105B1C0059400D0081400D0085400D000000000033
:105B2C007265706F7274004D6F74696F6E2064656E
:105B3C0074656374656421004D004D6F74696F6EFC
:105B4C002073746F7070656421004E6F206D6F74DC
:105B5C00696F6E20666F7220313830207365636F09
:105B6C006E6473210030005000416D6269656E7483
:105B7C005F3100416D6269656E745F320053706F06
:105B8C00746C696768745F310053706F746C69670B
:105B9C0068745F320046616E000000000000000077
:105BAC000000000097480D008D480D0083480D0043
:105BBC0039480D0077480D006B480D00B9500D00A9
:105BCC00C1500D005F480D0057480D004D480D00A9
:105BDC0043480D00F1500D000000000000000000D3
:105BEC00D1480D00D7480D0027490D00E5480D00A0
:105BFC00D3480D000000000000000000EB4E0D002B
:105C0C00E14E0D00D74E0D00CD4E0D00C14E0D00D6
:105C1C00B54E0D00B9500D00C1500D00A94E0D0030
:105C2C00A14E0D00974E0D008D4E0D00F1500D0044
:105C3C000000000000000000094F0D00534F0D0044
:105C4C002B4F0D000B4F0D00334F0D003B4F0D0034
:105C5C00434F0D004B4F0D000000000000000000F2
:105C6C00954F0D00854F0D00874F0D006170700032
:105C7C00000000000000000079500D0083500D0062
:105C8C008D500D0097500D00A1500D00AD500D0022
:105C9C00B9500D00C1500D00C9500D00D5500D006C
:105CAC00DD500D00E7500D00F1500D0025592D254C
:105CBC006D2D25645425483A254D3A2553257A00F7
:105CCC0061736374696D65000000000000000000E2
:105CDC00A5540D0011550D00E9540D00D9510D00BE
:105CEC00B9540D00D5540D00C7540D00E3540D00EC
:105CFC00A7540D00AB540D00000000000000000084
:105D0C00E9550D0051560D0027560D00D9510D00C7
:105D1C0019560D00EB550D00FB550D004B560D00A3
:105D2C000B560D00E5550D00000000008D430D00D5
:105D3C0011480D00A1480D00F54E0D0069500D00E5
:105D4C00C5510D00A5520D0055540D0091540D0078
:045D5C000000000043
:045D6000000000003F
:105D640001000000CC5C0D00A4E60320000000004C
:105D7400000000000000000000000000000000001F
:105D8400000000000000000000000000000000000F
:105D940000000000000000000000000000000000FF
:105DA40000000000000000000000000000000000EF
:105DB40000000000000000000000000000000000DF
:0C5DC400000000000000000000000000D3
:105DD000FFFFFFFF00000102030405060708090A90
:105DE0000B0C0D0E0F101112131415161718191A8B
:085DF0001B1C1D1E1F202800D2
:045DF8007856341293
:04000003D000401CCD
:00000001FF
