:02000002D0002C
:1040000000400D00385B0D000000060017000501A0
:08401000040135080000000066
:0440180064580D00DB
:10401C0009480A49884208B505D0094A824202D0AB
:10402C00121A01F0AFFB0748074A0021121A01F0DF
:10403C00B7FB014808BD00BF98E60320A45A0D0049
:10404C0004E7032004E70320F0E7032070B5074ED4
:10405C00074C01F0A9FAA41BA4080025A54200D125
:10406C0070BD56F8043B98470135F7E7745A0D00BC
:10407C00985A0D0000F02AB808B500F05BF8BDE8BE
:10408C00084001F053BA00F097BA00F095BA00F06E
:10409C009BBA0078B0FA80F0400970470123037096
:1040AC007047000008B5074901F0B5F830B101F0D0
:1040BC00F1F9054900F0EFFF012008BD4FF0FF308A
:1040CC00FBE700BF78580D007F580D0008B501F0D4
:1040DC00E1F94FF4165101F0D1F902211C2001F045
:1040EC00D3FA054B0549064801221A70BDE8084071
:1040FC00044A00F079BB00BF18E70320B1400D0063
:10410C00C9470D009A580D0038B5046805467CB1B6
:10411C006368013B63605BB9236820469B689847E2
:10412C00A368013BA3601BB923682046DB68984752
:10413C00284638BD7FB52D4E2D4C336823601C208E
:10414C0001F0B3FA0546B0FA80F0400930602668F9
:10415C00284CCEB935BB284E33781BB301F09AF9F5
:10416C00264900F098FF264B264A1B7826498DF8E5
:10417C00003002A83C2300F03BFC03A8FFF7C4FF6F
:10418C002570357004B070BD012E0BD155B101F006
:10419C0081F91E4900F07FFF267000F061F81C4B7E
:1041AC001860EFE72378002BECD000F059F8184B8F
:1041BC001B68C01A174B9842E4D901F06BF91649E9
:1041CC0000F069FF0E4B154A1B780F498DF8003033
:1041DC0002A83C2300F00CFC03A8FFF795FF00237A
:1041EC002370054B01221A70CCE700BF10E70320A7
:1041FC0014E7032098E6032018E703209F580D00CE
:10420C0008E70320B0580D00B2580D00B4580D004B
:10421C000CE703201FBF0200C4580D00DF580D002F
:10422C00024B01201870002100F01AB908E7032096
:10423C0008B5024B1B685B6C019308BD4802030078
:10424C0008B5024B1B689B6C019308BD4802030028
:10425C0008B5024B1B685B68019308BD180203008C
:10426C0008B5024B1B685B69019308BD180203007B
:10427C0008B5024B1B689B68019308BD2C02030018
:10428C0008B5024B1B68DB68019308BD2C020300C8
:10429C0008B5024B1B685B69019308BD2C02030037
:1042AC0008B5024B1B681B6A019308BD280203006A
:1042BC0008B5024B1B685B6A019308BD280203001A
:1042CC0008B5024B1B689B6A019308BD28020300CA
:1042DC0008B5024B1B68DB6A019308BD280203007A
:1042EC0008B5024B1B681B6B019308BD2802030029
:1042FC0008B5024B1B685B6B019308BD28020300D9
:10430C0008B5024B1B681B6C019308BD2802030007
:10431C0008B5024B1B685B69019308BD640203007E
:10432C0008B5024B1B689B68019308BD680203002B
:10433C0008B5024B1B68DB68019308BD68020300DB
:10434C0008B5024B1B68DB69019308BD3002030002
:10435C0008B5024B1B681B6A019308BD30020300B1
:10436C0008B5024B1B681B68019308BD3C02030097
:10437C0008B5024B1B68DB68019308BD3C020300C7
:10438C0008B5024B1B681B69019308BD3C02030076
:10439C0008B5024B1B685B69019308BD3C02030026
:1043AC0008B5024B1B689B69019308BD3C020300D6
:1043BC0008B5024B1B68DB69019308BD3C02030086
:1043CC0008B5024B1B681B6A019308BD3C02030035
:1043DC0008B5024B1B689B6A019308BD3C020300A5
:1043EC0008B5024B1B681B68019308BD4C02030007
:1043FC0008B5024B1B685B68019308BD4C020300B7
:10440C0008B5024B1B681B69019308BD4C020300E5
:10441C0008B5024B1B685B69019308BD4C02030095
:10442C0008B5024B1B689B69019308BD4C02030045
:10443C0008B5024B1B68DB69019308BD4C020300F5
:10444C0008B5024B1B681B6A019308BD4C020300A4
:10445C0008B5024B1B685B68019308BD2002030082
:10446C0008B5024B1B68DB6A019308BD20020300F0
:10447C0008B5024B1B68DB6C019308BD20020300DE
:10448C0008B5024B1B685B6D019308BD200203004D
:10449C0008B5034B1B68D3F88830019308BD0000A6
:1044AC002002030008B5034B1B68D3F8943001932A
:1044BC0008BD00002002030008B5024B1B685B68B6
:1044CC00019308BD4402030008B5024B1B685B69ED
:1044DC00019308BD4402030008B5024B1B681B6A1C
:1044EC00019308BD4402030008B5024B1B68DB6B4B
:1044FC00019308BD4402030008B5024B1B685B68BE
:10450C00019308BD4002030008B5024B1B689B6871
:10451C00019308BD4002030008B5024B1B68DB6821
:10452C00019308BD4002030008B5024B1B681B69D0
:10453C00019308BD4002030008B5024B1B685B6980
:10454C00019308BD4002030008B5024B1B689B6930
:10455C00019308BD4002030008B5024B1B68DB69E0
:10456C00019308BD4002030008B5024B1B681B6A8F
:10457C00019308BD4002030008B5024B1B681B6B7E
:10458C00019308BD4002030008B5024B1B685B6B2E
:10459C00019308BD4002030008B5024B1B681B6C5D
:1045AC00019308BD4002030008B5024B1B685B6C0D
:1045BC00019308BD4002030008B5024B1B681B6841
:1045CC00019308BD1C02030008B5024B1B685B6815
:1045DC00019308BD1C02030008B5024B1B689B68C5
:1045EC00019308BD1C02030008B5024B1B68DB6A73
:1045FC00019308BD1C02030008B5024B1B681B6B22
:10460C00019308BD1C02030008B5024B1B685B6CD0
:10461C00019308BD1C02030010B5836804460BB956
:10462C0001F09FF8C3689847A3681BB10322214689
:10463C002046984720461021BDE8104001F08DB867
:10464C0010B50446006808B1FFF7FAFD204610BD0E
:10465C000B68036013B15A6801325A60704700004E
:10466C0010B5064C002320462360FFF7E1FD2046E1
:10467C00034A0449BDE8104001F06AB81CE7032066
:10468C0004E703204D460D00002240681146FFF759
:10469C004BBF002240681146FFF766BF00224068FE
:1046AC001146FFF771BF40680022FFF765BF4068F5
:1046BC00002281F00101FFF74FBF002340681A462A
:1046CC001946FFF741BF002340681A461946FFF709
:1046DC0033BF002240681146FFF716BF4068002226
:1046EC000221FFF719BF002340681A46FFF704BFE9
:1046FC00084B10B5282422461846002101F050F82A
:10470C00054B04804FF0FF32426004225A60034A8A
:10471C001A6010BD28E7032020E70320EC580D0099
:10472C0070470020704710B51021044601F015F8B1
:10473C00204610BD08B5FFF7F6FF08BD10B583681D
:10474C00044613B1032201469847204610BD30B5EC
:10475C0000224FF69C74026084808D888C800C68DB
:10476C00858004600A6030BD10B504460068FFF710
:10477C002BFF204610BD38B5C468F4B12378022B4A
:10478C0003D104F10C00FFF7EFFF656835B1284643
:10479C00FFF7D4FF1021284600F0DFFFA56835B1E4
:1047AC002846FFF7CBFF1021284600F0D6FF204605
:1047BC001421BDE8384000F0D0BF38BD10B588B02A
:1047CC000446684600F0F9FC694604A800F018FDA0
:1047DC0004A8A047044604A800F0A4FC684600F016
:1047EC00A1FC204608B010BD1FB50023CDE9020185
:1047FC00019210241A4669461846ADF80230ADF8FD
:10480C000040FFF759FE04B010BD73B50E460446C8
:10481C0056F8043B00930D4601A83146FFF718FFEC
:10482C00019A009B6260236001A80023019300930E
:10483C00FFF76AFC3046FFF767FC2846082100F0BA
:10484C008CFF204602B070BD13B50B460246D0E972
:10485C0000016C4684E8030093E8030082E803003F
:10486C0094E8030083E8030002B010BD826810B521
:10487C000AB900F076FFBDE81040C368184708B5C8
:10488C00006800F11001FFF7F1FF08BD826810B558
:10489C000AB900F066FFBDE81040C368184708B5B8
:1048AC00006800F11001FFF7F1FF08BD38B50023D7
:1048BC000446036010200D46FFF7E5FB28B10123E9
:1048CC00C0E90133024B0360C5602060204638BD4F
:1048DC0028590D0038B5002383608B6804460D46BB
:1048EC002BB102229847EB68E360AB68A3602046CB
:1048FC0038BD0000F0B589B004686846FFF727FFA3
:10490C004FF00203D4E84F2F002A03D1C4E8413FF3
:10491C000029F7D125D104F10C0569462846FFF78B
:10492C0016FFBFF35B8F01236370002004F10803B3
:10493C00BFF35B8F53E8006F43E80002002AF9D104
:10494C00BFF35B8F6EB1FFF793FD78B1294630460C
:10495C00FFF78CFF3046FFF7F1FE1021304600F0D8
:10496C00FCFE6846FFF700FF09B0F0BD314602A817
:10497C00FFF7B0FFE068B4F9105008B100F046FF43
:10498C0006901020ADF81C50FFF77DFB0546E8B1F2
:10499C00002787601820FFF776FB044688B1014694
:1049AC00876002A8FFF750FF049BA268A360059BD9
:1049BC00049206A9E268E36004F110000592FFF787
:1049CC00C6FE084BEB60084B2C60AB6006A8FFF7EB
:1049DC00CBFE02A8FFF7B2FE002229460348FFF7E0
:1049EC004FFDB7E78B480D00214B0D0025460D0000
:1049FC002DE9F0478AB005469DF848900C461746BD
:104A0C009846FFF761FD07AE824638BB4FF62E7312
:104A1C00059005A93046ADF81830FFF798FE142024
:104A2C00FFF731FB044648B1022303700123C0E9B0
:104A3C0001AA437031460C30FFF789FE2846214607
:104A4C0040F8044BFFF732FF3046FFF78DFE05A808
:104A5C00FFF78AFE28460AB0BDE8F0870C234FF01A
:104A6C00000A1420CDE908AA0793FFF70CFB0146B6
:104A7C0028B1C0E901AA80F800A080F801A004A820
:104A8C000391FFF713FF224B08930820FFF7FBFA63
:104A9C00824628B1039B40F8043B04A9FFF7D8FDDC
:104AAC0000965FFA89F3424639462046CDF824A099
:104ABC00FFF712FDB8B9039B5B7803F0FF0293B9C3
:104ACC004FF69C7305A903A80592ADF81830FFF7B3
:104ADC0011FF05A8FFF748FE05A80999FFF795FEF9
:104AEC0006A8FFF711FB039B059304A906A8FFF783
:104AFC00AFFD059B069A2B606A60002306A80693FF
:104B0C000593FFF701FB04A8FFF7FEFAA2E700BF2D
:104B1C00E54B0D00022AF8B5054607D0032A18D03C
:104B2C00012A01D10B6803600020F8BD18200E6823
:104B3C00FFF7A9FA044650B13146FFF7CBFE3069B6
:104B4C00B6F9147008B100F061FE2061A7822C60E8
:104B5C00EAE70468002CE7D004F11000FFF704FE2C
:104B6C002046FFF7EBFD1821204600F0F6FDDBE7B1
:104B7C0038B5002383608B6804460D462BB10222A6
:104B8C009847EB68E360AB68A360204638BD022A07
:104B9C0070B5044607D0032A12D0012A01D10B6844
:104BAC000360002070BD14200E68FFF76CFA0546F8
:104BBC0020B13146FFF7DCFF337C2B742560F0E726
:104BCC000468002CEDD02046FFF7B8FD14212046D8
:104BDC0000F0C3FDE5E70000F0B589B004460D46D2
:104BEC0001A81146FFF711FEA4B124B21DB128464D
:104BFC0000F00CFE054601A803A90395ADF8104082
:104C0C00FFF778FE03A8FFF7AFFD02A8FFF77CFAC9
:104C1C0009B0F0BD019D0123D5E84F2F002A03D127
:104C2C00C5E8413F0029F7D1EFD12B73BFF35B8F60
:104C3C006B702B1DBFF35B8F53E8006F43E8004292
:104C4C00002AF9D1BFF35B8F002EDED02046FFF790
:104C5C000FFC074660B105F10C013046FFF716FE5C
:104C6C003046FFF76BFD1021304600F076FDCCE7A7
:104C7C00314603A8FFF77CFF2B7B8DF81C301020EE
:104C8C00FFF701FA0546D0B187601420FFF7FBF956
:104C9C00044678B18760014603A8FFF7D5FD059B54
:104CAC00A268A360069B0592E268E3609DF81C3045
:104CBC0006922374064BEB60064B2C60AB6003A88A
:104CCC00FFF73CFD002229460348FFF7D9FBC7E755
:104CDC00AB480D009B4B0D0025460D000022406893
:104CEC001146FFF741BC002240681146FFF74CBC4F
:104CFC0040680022FFF740BC4068002281F00101AF
:104D0C00FFF72ABC002340681A461946FFF71CBC63
:104D1C00002340681A461946FFF70EBC0022406873
:104D2C001146FFF701BC002240681146FFF7ECBBAF
:104D3C00406800220221FFF7EFBB002340681A46AF
:104D4C00FFF7DABB024B03225A60024A1A60704723
:104D5C0050E7032044590D007047F8B50646154638
:104D6C000C468F18BC4206D0336814F8011B9B68A4
:104D7C0030469847F6E72846F8BD007C0022FFF73E
:104D8C008FBA007C0021FFF793BA007C0021FFF75B
:104D9C0097BA007C0021FFF79BBA007C0021FFF73B
:104DAC009FBA10B51421044600F0D7FC204610BD64
:104DBC0010B54FF47A73044608460021C4E9011378
:104DCC00034B236020741146FFF79AFA204610BD5E
:104DDC0080590D00704710B51821044600F0BDFC39
:104DEC00204610BDF0B5037D062B8DB00E4600F1AC
:104DFC0004074FF0000412D000F1080515F8011D4E
:104E0C000A22304600F051F9AF42044419D0002C6C
:104E1C00F4D02E21304600F02FF90444EEE72F2376
:104E2C006A4639460A208DF80040FFF771FA684649
:104E3C0000F009FD33680246DB6869463046984746
:104E4C00044620460DB0F0BD10B5054B04461122AA
:104E5C0040F8043B002100F0A3FC204610BD00BF2D
:104E6C00A8590D000346074A10B543F8042B01F16D
:104E7C00100251F8044B43F8044B9142F9D10A78D3
:104E8C001A7010BDA8590D0010B59DF8084044EAE1
:104E9C00032343EA024242EA0161042341600375A1
:104EAC0010BD13B5CB7800938B784A780978FFF74F
:104EBC00EBFF02B010BD0000014B024A1A607047B4
:104ECC0058E70320B4590D00002340681A46FFF739
:104EDC0013BB406800220221FFF71EBB0022406872
:104EEC001146FFF711BB002240681146FFF71CBBAF
:104EFC00002340681A461946FFF71EBB0023406882
:104F0C001A461946FFF720BB40680021FFF744BB47
:104F1C0040680021FFF748BB4068002281F0010186
:104F2C00FFF71ABB40680022FFF726BB002240683F
:104F3C001146FFF729BB002240681146FFF714BB4E
:104F4C002DE9F043002495B016460D460746FFF7B1
:104F5C007BFF214618220EA8009400F021FC402370
:104F6C00CDE90C3421466B460CAA3046FFF7E0F92C
:104F7C000446002846D1024601216868FFF7D4FA9E
:104F8C000221804622466868FFF7CEFA009E8146D1
:104F9C002146002E36D0002934D17368022B03D061
:104FAC000A2B0BD0F669F4E7B8F1000F04D0716945
:104FBC0038460431FFF775FF4146F3E7B9F1000FAE
:104FCC0001D14946EEE77469102201A800F0E8FB14
:104FDC0006238DF8143001AD04F108031834186859
:104FEC0059682A4603C20833A3421546F7D101A9D2
:104FFC0006A807ADFFF736FF0FCD3C1D0FC42B687D
:10500C002370DEE70098FFF78BF9384615B0BDE842
:10501C00F0830000024B034A1A6000225A6070476A
:10502C005CE70320C0590D00F8B506460D468F18F5
:10503C000024BD420CD0336815F8011B9B68304628
:10504C009847031E01DB1C44F3E7002C08BF1C46E9
:10505C002046F8BD13B50446084659B1019100F03D
:10506C00F2FB23680199DB680246204602B0BDE8DA
:10507C001040184702B010BD03689B68184738B53C
:10508C000D210546FFF7F8FF0A2104462846FFF7D5
:10509C00F3FF204438BD38B50546FFF7DBFF044667
:1050AC002846FFF7ECFF204438BD30B58BB0002309
:1050BC008DF82430012A98BF0A2209AC0D46B1FBA9
:1050CC00F2F101FB125303F0FF03092B94BF3033B1
:1050DC003733DBB2AA4204F8013DEFD92146FFF782
:1050EC00B9FF0BB030BD10B50446FFF727FB2046C7
:1050FC0010BD00000348044A04490023836000F0FB
:10510C0027BB00BF64E7032004E70320F3500D0026
:10511C0010B5044608462170FFF712F900236360AE
:10512C00204610BD10B504460068FFF74DFA204626
:10513C0010BD10B50446006808B1FFF745FA00230E
:10514C00C4E90133236010BD38B504460D46006830
:10515C000131FFF741FA10B1C4E90005012038BD57
:10516C0010B50368044623B143688B4201D3012078
:10517C0010BD2046FFF7E8FF0028F9D0A368002BEC
:10518C00F5D122681370F2E737B50D46114601923E
:10519C000446FFF7E5FF019A28B92046FFF7C9FF3F
:1051AC00204603B030BDA2602946206800F0EAFA20
:1051BC002268A3680021D154F2E7002313B5C0E99B
:1051CC00003304468360037341B10846019100F03B
:1051DC003AFB019902462046FFF7D6FF204602B063
:1051EC0010BD884210B5044605D00B682BB18A68F7
:1051FC001946FFF7C9FF204610BDFFF79AFFFAE7E3
:10520C0010B500230446C0E9003383600373FFF735
:10521C00E8FF204610BD08B582683AB921B108787C
:10522C00B0FA80F0400900E0012008BD006809B91F
:10523C000078F5E700F0E0FAF2E710B504460068F4
:10524C0018B1FFF7C1F90023236010BD10B5044657
:10525C00FFF7F3FF204610BD10B5094B094C022295
:10526C0000201A60084B2060A080A071A360FFF79B
:10527C00EFF82046054A0649BDE8104000F068BA30
:10528C0080E7032074E703200000FFFF04E70320FE
:10529C0059520D00024B1A68024B1A60704700BF3E
:1052AC009CE6032084E7032070474174704708B5DF
:1052BC00007CFFF78DF820EAE07008BD08B5007C93
:1052CC00FFF75EF820EAE07008BD08B5007CFFF738
:1052DC0067F840EAE07008BD08B5007CFFF758F8A5
:1052EC0040EAE07008BD007CFFF762B837B5457C3A
:1052FC0004462DB1207C03B0BDE83040FFF738B830
:10530C00007C0191FFF764F800280199F2DC284633
:10531C0003B030BD10B51421044600F01EFA20462F
:10532C0010BD000010B54FF0000C044608461146A5
:10533C004FF47A72C4E901C2044A2260012220743B
:10534C0062741A46FFF70CF8204610BD185A0D006F
:10535C00F7B51B4C26684EB98420FEF794FE054623
:10536C0018B18422314600F01BFA2560154D2F68C8
:10537C004FB98420FEF787FE064618B184223946C1
:10538C0000F00EFA2E60104E3178BFF35B8F11F0E7
:10539C00010112D130460191FEF77BFE019960B1FB
:1053AC0022682B680948FFF7BDFF3046FEF776FEF2
:1053BC00074A0849054800F0CBF9044803B0F0BD92
:1053CC008CE7032090E7032088E7032094E7032071
:1053DC0004E70320B5520D0041747047704708B5BF
:1053EC000021007CFFF71CF840EAE07008BD08B50E
:1053FC000121007CFFF714F840EAE07008BD08B505
:10540C00007CFFF705F820EAE07008BD08B5007CC9
:10541C00FEF7F6FF20EAE07008BD13B50446007CE9
:10542C000191FEF7F5FF0028019901DC607C20B1A9
:10543C00207CFEF7FDFF20EAE07002B010BD007C7E
:10544C00FEF7FEBF10B51421044600F086F9204685
:10545C0010BD000010B54FF47A73044608460021C5
:10546C00C4E90113044B23600123207463741146B7
:10547C00FEF7B6FF204610BD485A0D00007C0022F6
:10548C00FEF7B6BF10B514220446002100F088F9CF
:10549C00204610BD10B5104C88B003A8FFF7F2FFE2
:1054AC002178BFF35B8F11F0010111D120460191DE
:1054BC00FEF7EFFD019958B103AA0848FFF7CAFFA0
:1054CC002046FEF7EBFD064A0649044800F040F979
:1054DC00024808B010BD00BFA8E70320ACE70320CA
:1054EC0004E70320E9530D00014B1860704700BF1F
:1054FC00A0E6032008B50B4B43B1FFF7CBFF0368C5
:10550C001B699847002801DDAFF30080064B43B1BF
:10551C00FFF71EFF03681B699847002801DDAFF3F6
:10552C00008008BD000000000000000008B5FFF777
:10553C00E1FFFEF795FE014B186008BDD4E7032090
:10554C000248034A0349121A00F01CB900F4032064
:10555C0004F40320A05A0D0007B5002300931A464B
:10556C006FF07701FEF79EFF03B05DF804FB0000BF
:10557C0007B543880A2B08D0502B0BD1094B1B685D
:10558C004BB103B05DF804EB1847FFF7E5FF03B030
:10559C005DF804FB002300931A466FF07701FEF7C9
:1055AC0081FFF4E7C4E7032038B5124C1248134DC1
:1055BC000021FFF729F82368AB42114B0CBF0122E5
:1055CC0000221A7002D0FFF7BBFF2560FEF740FEE9
:1055DC00044600F0EDF80B4B13B12046AFF30080FE
:1055EC0000210848FEF780FFBDE83840064800213E
:1055FC00FEF74EBF00F40320F5540D001E1C279A35
:10560C00C0E70320000000007D550D00252813B5D0
:10561C0002D9002002B010BDA0F10B03022B1AD846
:10562C00174C2178BFF35B8F11F001010BD1204691
:10563C000191FEF72EFD019928B11248FFF768FD84
:10564C002046FEF72BFD0F4B1878FEF781FE002845
:10565C00DFD10120DEE7012809D800F051F8002144
:10566C00007CFEF745FE80F00100C0B2D2E709389D
:10567C000128EED8FFF76CFE007CFEF7A1FEF2E7E6
:10568C00C8E70320CCE70320252838B504460D468F
:10569C000AD8FF2908D0FFF7B9FF28B129462046C0
:1056AC00BDE83840FEF7E4BD38BD10B50446FEF742
:1056BC00E7FD031FDBB2012B08D92046FFF7A6FF3D
:1056CC0020B12046BDE81040FEF7E2BD002010BD21
:1056DC0038B50023202543801423044603808560BD
:1056EC0005610649284600F03AF8044960602846EE
:1056FC0000F035F8E060204638BD00BF705A0D0050
:10570C0030B50F4D2978BFF35B8F11F0010487B0D2
:10571C0013D12846FEF7BDFC78B101A8FFF7D8FFDE
:10572C0001AA21460748FFF743FB2846FEF7B6FCC3
:10573C00054A0649034800F00BF8024807B030BD93
:10574C00D8E70320DCE7032004E70320654D0D00B8
:10575C000B460146184600F007B8FEF798BCFEF75A
:10576C0094BC08B5FEF740FF10B5054C13462CB1A0
:10577C000A4601460220AFF3008010BD2046FCE72C
:10578C00000000000A44914200F1FF3300D1704741
:10579C0010B511F8014B03F8014F9142F9D110BD2E
:1057AC0002440346934200D1704703F8011BF9E70A
:1057BC0038B50D4B1D68AB6B04467BB91820FEF752
:1057CC00FBFE0A4A0A4BA863C0E90023094B83601D
:1057DC000B23838101220023C0E90423AB6B00223D
:1057EC001C615A6138BD00BFA0E603200E33CDAB5F
:1057FC0034126DE6ECDE050010F8012B11F8013BBC
:10580C00012A28BF9A42F7D0D01A7047024B0146A2
:10581C00186800F003B800BFA0E6032037B50446B3
:10582C0008460D4600F00FF8421C11462046019226
:10583C00FEF7E2FE044618B1019A2946FFF7A2FFD3
:10584C00204603B030BD034613F8012B002AFBD1D0
:10585C00181A0138704700001D400D0059400D000A
:10586C0081400D0085400D0000000000636F6666EE
:10587C006565002D2D2D7468652066756E637469E1
:10588C006F6E20776F726B6564212D2D2D00627207
:10589C006577004D6F74696F6E2064657465637411
:1058AC006564210031004D004D6F74696F6E20737B
:1058BC00746F7070656421004E6F206D6F74696F2A
:1058CC006E20666F7220313830207365636F6E64A2
:1058DC0073210030000000000000000000000000F8
:1058EC00F3460D00E9460D00DF460D0095460D0010
:1058FC00D3460D00C7460D00154F0D001D4F0D0072
:10590C00BB460D00B3460D00A9460D009F460D0089
:10591C004D4F0D0000000000000000002D470D0051
:10592C0033470D0083470D0041470D002F470D00F5
:10593C000000000000000000474D0D003D4D0D0023
:10594C00334D0D00294D0D001D4D0D00114D0D0059
:10595C00154F0D001D4F0D00054D0D00FD4C0D009C
:10596C00F34C0D00E94C0D004D4F0D0000000000F4
:10597C0000000000654D0D00AF4D0D00874D0D0072
:10598C00674D0D008F4D0D00974D0D009F4D0D0077
:10599C00A74D0D000000000000000000F14D0D00AF
:1059AC00E14D0D00E34D0D00617070000000000032
:1059BC0000000000D54E0D00DF4E0D00E94E0D002D
:1059CC00F34E0D00FD4E0D00094F0D00154F0D004F
:1059DC001D4F0D00254F0D00314F0D00394F0D009F
:1059EC00434F0D004D4F0D0025592D256D2D256470
:1059FC005425483A254D3A2553257A006173637432
:105A0C00696D65000000000000000000B5520D003B
:105A1C0021530D00F9520D0035500D00C9520D00E7
:105A2C00E5520D00D7520D00F3520D00B7520D0088
:105A3C00BB520D000000000000000000E9530D00F7
:105A4C0051540D0027540D0035500D0019540D0004
:105A5C00EB530D00FB530D004B540D000B540D007C
:105A6C00E5530D00000000002D420D006D460D00A9
:105A7C00FD460D00514D0D00C54E0D0021500D0081
:105A8C0001510D0065520D00A1520D0000000000E7
:045A9C000000000006
:045AA0000000000002
:105AA40001000000085A0D00A4E6032000000000D5
:105AB40000000000000000000000000000000000E2
:105AC40000000000000000000000000000000000D2
:105AD40000000000000000000000000000000000C2
:105AE40000000000000000000000000000000000B2
:105AF40000000000000000000000000000000000A2
:0C5B040000000000000000000000000095
:105B1000FFFFFFFF00000102030405060708090A52
:105B20000B0C0D0E0F101112131415161718191A4D
:085B30001B1C1D1E1F20280094
:045B38007856341255
:04000003D000401CCD
:00000001FF
